{
  "contractName": "dataShare",
  "abi": [
    {
      "constant": false,
      "inputs": [],
      "name": "renounceOwnership",
      "outputs": [],
      "payable": false,
      "stateMutability": "nonpayable",
      "type": "function"
    },
    {
      "constant": true,
      "inputs": [],
      "name": "data_index",
      "outputs": [
        {
          "name": "",
          "type": "uint256"
        }
      ],
      "payable": false,
      "stateMutability": "view",
      "type": "function"
    },
    {
      "constant": true,
      "inputs": [],
      "name": "owner",
      "outputs": [
        {
          "name": "",
          "type": "address"
        }
      ],
      "payable": false,
      "stateMutability": "view",
      "type": "function"
    },
    {
      "constant": true,
      "inputs": [],
      "name": "isOwner",
      "outputs": [
        {
          "name": "",
          "type": "bool"
        }
      ],
      "payable": false,
      "stateMutability": "view",
      "type": "function"
    },
    {
      "constant": true,
      "inputs": [
        {
          "name": "",
          "type": "address"
        }
      ],
      "name": "user_keys",
      "outputs": [
        {
          "name": "x",
          "type": "bytes32"
        },
        {
          "name": "y",
          "type": "bytes32"
        }
      ],
      "payable": false,
      "stateMutability": "view",
      "type": "function"
    },
    {
      "constant": false,
      "inputs": [
        {
          "name": "newOwner",
          "type": "address"
        }
      ],
      "name": "transferOwnership",
      "outputs": [],
      "payable": false,
      "stateMutability": "nonpayable",
      "type": "function"
    },
    {
      "constant": true,
      "inputs": [
        {
          "name": "",
          "type": "uint256"
        },
        {
          "name": "",
          "type": "address"
        }
      ],
      "name": "access_list",
      "outputs": [
        {
          "name": "",
          "type": "uint8"
        }
      ],
      "payable": false,
      "stateMutability": "view",
      "type": "function"
    },
    {
      "anonymous": false,
      "inputs": [
        {
          "indexed": true,
          "name": "user_id",
          "type": "address"
        },
        {
          "indexed": true,
          "name": "data_id",
          "type": "uint256"
        }
      ],
      "name": "LogAccessRequest",
      "type": "event"
    },
    {
      "anonymous": false,
      "inputs": [
        {
          "indexed": true,
          "name": "user_id",
          "type": "address"
        },
        {
          "indexed": true,
          "name": "data_id",
          "type": "uint256"
        },
        {
          "indexed": false,
          "name": "publicKeyX",
          "type": "bytes32"
        },
        {
          "indexed": false,
          "name": "publicKeyY",
          "type": "bytes32"
        }
      ],
      "name": "LogAccessRequestWithPubKey",
      "type": "event"
    },
    {
      "anonymous": false,
      "inputs": [
        {
          "indexed": true,
          "name": "data_id",
          "type": "uint256"
        },
        {
          "indexed": true,
          "name": "IPFSaddress",
          "type": "bytes32"
        }
      ],
      "name": "LogDataUpdated",
      "type": "event"
    },
    {
      "anonymous": false,
      "inputs": [
        {
          "indexed": true,
          "name": "user",
          "type": "address"
        },
        {
          "indexed": true,
          "name": "data_id",
          "type": "uint256"
        },
        {
          "indexed": false,
          "name": "IPFSaddress",
          "type": "bytes32"
        }
      ],
      "name": "LogAccessGranted",
      "type": "event"
    },
    {
      "anonymous": false,
      "inputs": [
        {
          "indexed": true,
          "name": "user",
          "type": "address"
        },
        {
          "indexed": true,
          "name": "data_id",
          "type": "uint256"
        },
        {
          "indexed": false,
          "name": "IPFSaddress",
          "type": "bytes32"
        }
      ],
      "name": "LogAccessRevoked",
      "type": "event"
    },
    {
      "anonymous": false,
      "inputs": [
        {
          "indexed": true,
          "name": "data_id",
          "type": "uint256"
        },
        {
          "indexed": false,
          "name": "IPFSaddress",
          "type": "bytes32"
        }
      ],
      "name": "LogContentAdded",
      "type": "event"
    },
    {
      "anonymous": false,
      "inputs": [
        {
          "indexed": true,
          "name": "previousOwner",
          "type": "address"
        },
        {
          "indexed": true,
          "name": "newOwner",
          "type": "address"
        }
      ],
      "name": "OwnershipTransferred",
      "type": "event"
    },
    {
      "constant": false,
      "inputs": [
        {
          "name": "data_id",
          "type": "uint256"
        }
      ],
      "name": "requestAccess",
      "outputs": [],
      "payable": false,
      "stateMutability": "nonpayable",
      "type": "function"
    },
    {
      "constant": false,
      "inputs": [
        {
          "name": "data_id",
          "type": "uint256"
        },
        {
          "name": "publicKeyX",
          "type": "bytes32"
        },
        {
          "name": "publicKeyY",
          "type": "bytes32"
        }
      ],
      "name": "requestAccess",
      "outputs": [],
      "payable": false,
      "stateMutability": "nonpayable",
      "type": "function"
    },
    {
      "constant": false,
      "inputs": [
        {
          "name": "IPFSaddress",
          "type": "bytes32"
        }
      ],
      "name": "addContent",
      "outputs": [],
      "payable": false,
      "stateMutability": "nonpayable",
      "type": "function"
    },
    {
      "constant": false,
      "inputs": [
        {
          "name": "user",
          "type": "address"
        },
        {
          "name": "data_id",
          "type": "uint256"
        },
        {
          "name": "newContentLocation",
          "type": "bytes32"
        }
      ],
      "name": "grantAccess",
      "outputs": [],
      "payable": false,
      "stateMutability": "nonpayable",
      "type": "function"
    },
    {
      "constant": false,
      "inputs": [
        {
          "name": "data_id",
          "type": "uint256"
        },
        {
          "name": "IPFSaddress",
          "type": "bytes32"
        }
      ],
      "name": "updateContent",
      "outputs": [],
      "payable": false,
      "stateMutability": "nonpayable",
      "type": "function"
    },
    {
      "constant": false,
      "inputs": [
        {
          "name": "user_id",
          "type": "address"
        },
        {
          "name": "data_id",
          "type": "uint256"
        },
        {
          "name": "newContentLocation",
          "type": "bytes32"
        }
      ],
      "name": "revokeAccess",
      "outputs": [],
      "payable": false,
      "stateMutability": "nonpayable",
      "type": "function"
    },
    {
      "constant": true,
      "inputs": [
        {
          "name": "data_id",
          "type": "uint256"
        }
      ],
      "name": "getDataLocation",
      "outputs": [
        {
          "name": "hash",
          "type": "bytes32"
        }
      ],
      "payable": false,
      "stateMutability": "view",
      "type": "function"
    },
    {
      "constant": true,
      "inputs": [
        {
          "name": "data_id",
          "type": "uint256"
        }
      ],
      "name": "getUsersForDatum",
      "outputs": [
        {
          "name": "",
          "type": "address[]"
        }
      ],
      "payable": false,
      "stateMutability": "view",
      "type": "function"
    }
  ],
  "bytecode": "0x60806040526000600155336000806101000a81548173ffffffffffffffffffffffffffffffffffffffff021916908373ffffffffffffffffffffffffffffffffffffffff1602179055506000809054906101000a900473ffffffffffffffffffffffffffffffffffffffff1673ffffffffffffffffffffffffffffffffffffffff16600073ffffffffffffffffffffffffffffffffffffffff167f8be0079c531659141344cd1fd0a4f28419497f9722a3daafe3b4186f6b6457e060405160405180910390a361149e806100d46000396000f3fe608060405234801561001057600080fd5b50600436106100f55760003560e01c80639419b51311610097578063d332bf4911610066578063d332bf4914610373578063d525c82a146103b5578063f2fde38b14610438578063fb3892d21461047c576100f5565b80639419b51314610242578063b59c6301146102a1578063b75778b1146102d9578063d050311314610331576100f5565b8063732b4782116100d3578063732b47821461018a5780637fdc2cdc146101a85780638da5cb5b146101d65780638f32d59b14610220576100f5565b8063329812bd146100fa57806356536ab214610152578063715018a614610180575b600080fd5b6101506004803603606081101561011057600080fd5b81019080803573ffffffffffffffffffffffffffffffffffffffff16906020019092919080359060200190929190803590602001909291905050506104e4565b005b61017e6004803603602081101561016857600080fd5b8101908080359060200190929190505050610634565b005b61018861071b565b005b610192610854565b6040518082815260200191505060405180910390f35b6101d4600480360360208110156101be57600080fd5b810190808035906020019092919050505061085a565b005b6101de610ad8565b604051808273ffffffffffffffffffffffffffffffffffffffff1673ffffffffffffffffffffffffffffffffffffffff16815260200191505060405180910390f35b610228610b01565b604051808215151515815260200191505060405180910390f35b6102846004803603602081101561025857600080fd5b81019080803573ffffffffffffffffffffffffffffffffffffffff169060200190929190505050610b58565b604051808381526020018281526020019250505060405180910390f35b6102d7600480360360408110156102b757600080fd5b810190808035906020019092919080359060200190929190505050610b7c565b005b61032f600480360360608110156102ef57600080fd5b81019080803573ffffffffffffffffffffffffffffffffffffffff1690602001909291908035906020019092919080359060200190929190505050610c40565b005b6103716004803603606081101561034757600080fd5b81019080803590602001909291908035906020019092919080359060200190929190505050610d16565b005b61039f6004803603602081101561038957600080fd5b8101908080359060200190929190505050610f78565b6040518082815260200191505060405180910390f35b6103e1600480360360208110156103cb57600080fd5b8101908080359060200190929190505050610f95565b6040518080602001828103825283818151815260200191508051906020019060200280838360005b83811015610424578082015181840152602081019050610409565b505050509050019250505060405180910390f35b61047a6004803603602081101561044e57600080fd5b81019080803573ffffffffffffffffffffffffffffffffffffffff169060200190929190505050611204565b005b6104c86004803603604081101561049257600080fd5b8101908080359060200190929190803573ffffffffffffffffffffffffffffffffffffffff16906020019092919050505061128a565b604051808260ff1660ff16815260200191505060405180910390f35b6104ec610b01565b61055e576040517f08c379a00000000000000000000000000000000000000000000000000000000081526004018080602001828103825260208152602001807f4f776e61626c653a2063616c6c6572206973206e6f7420746865206f776e657281525060200191505060405180910390fd5b60026004600084815260200190815260200160002060008573ffffffffffffffffffffffffffffffffffffffff1673ffffffffffffffffffffffffffffffffffffffff16815260200190815260200160002060006101000a81548160ff021916908360ff160217905550806002600084815260200190815260200160002081905550818373ffffffffffffffffffffffffffffffffffffffff167f54f0a7ff1c18023c962630facbcb3059a614ef3bc89d62636fadc8368b529f2c836040518082815260200191505060405180910390a3505050565b61063c610b01565b6106ae576040517f08c379a00000000000000000000000000000000000000000000000000000000081526004018080602001828103825260208152602001807f4f776e61626c653a2063616c6c6572206973206e6f7420746865206f776e657281525060200191505060405180910390fd5b60006001549050816002600083815260200190815260200160002081905550600160008154809291906001019190505550807f2b1a1ef07172cf19cbb5f71c02d0d05c3d50d790f01e035054f26c2018422856836040518082815260200191505060405180910390a25050565b610723610b01565b610795576040517f08c379a00000000000000000000000000000000000000000000000000000000081526004018080602001828103825260208152602001807f4f776e61626c653a2063616c6c6572206973206e6f7420746865206f776e657281525060200191505060405180910390fd5b600073ffffffffffffffffffffffffffffffffffffffff166000809054906101000a900473ffffffffffffffffffffffffffffffffffffffff1673ffffffffffffffffffffffffffffffffffffffff167f8be0079c531659141344cd1fd0a4f28419497f9722a3daafe3b4186f6b6457e060405160405180910390a360008060006101000a81548173ffffffffffffffffffffffffffffffffffffffff021916908373ffffffffffffffffffffffffffffffffffffffff160217905550565b60015481565b61086261142c565b600560003373ffffffffffffffffffffffffffffffffffffffff1673ffffffffffffffffffffffffffffffffffffffff1681526020019081526020016000206040518060400160405290816000820154815260200160018201548152505090506108d4816000015182602001516112b9565b610946576040517f08c379a000000000000000000000000000000000000000000000000000000000815260040180806020018281038252601b8152602001807f7075626c6963206b6579206e6f742070726f766964656420796574000000000081525060200191505060405180910390fd5b60016004600084815260200190815260200160002060003373ffffffffffffffffffffffffffffffffffffffff1673ffffffffffffffffffffffffffffffffffffffff16815260200190815260200160002060006101000a81548160ff021916908360ff1602179055506003600083815260200190815260200160002073__IterableMapping_______________________63788f0f0390913360016040518463ffffffff1660e01b8152600401808481526020018373ffffffffffffffffffffffffffffffffffffffff1673ffffffffffffffffffffffffffffffffffffffff16815260200182151515158152602001935050505060206040518083038186803b158015610a5457600080fd5b505af4158015610a68573d6000803e3d6000fd5b505050506040513d6020811015610a7e57600080fd5b810190808051906020019092919050505050813373ffffffffffffffffffffffffffffffffffffffff167fa5165aacfe032d6a5ec606938478273abcaa3a1f1b828bf30c97ef556db47b2260405160405180910390a35050565b60008060009054906101000a900473ffffffffffffffffffffffffffffffffffffffff16905090565b60008060009054906101000a900473ffffffffffffffffffffffffffffffffffffffff1673ffffffffffffffffffffffffffffffffffffffff163373ffffffffffffffffffffffffffffffffffffffff1614905090565b60056020528060005260406000206000915090508060000154908060010154905082565b610b84610b01565b610bf6576040517f08c379a00000000000000000000000000000000000000000000000000000000081526004018080602001828103825260208152602001807f4f776e61626c653a2063616c6c6572206973206e6f7420746865206f776e657281525060200191505060405180910390fd5b80600260008481526020019081526020016000208190555080827f935f9715dd016909ca5676266bde959e3ac2a0bea6fb43abf17870d8077975f860405160405180910390a35050565b60006004600084815260200190815260200160002060008573ffffffffffffffffffffffffffffffffffffffff1673ffffffffffffffffffffffffffffffffffffffff16815260200190815260200160002060006101000a81548160ff021916908360ff160217905550806002600084815260200190815260200160002081905550818373ffffffffffffffffffffffffffffffffffffffff167f4be698563e7cb077b8572d8a1638cc35f3f48238b327d3d5bd0e2f2c188f13bf836040518082815260200191505060405180910390a3505050565b610d2082826112b9565b610d92576040517f08c379a00000000000000000000000000000000000000000000000000000000081526004018080602001828103825260168152602001807f7075626c6963206b65792063616e6e6f7420626520300000000000000000000081525060200191505060405180910390fd5b60016004600085815260200190815260200160002060003373ffffffffffffffffffffffffffffffffffffffff1673ffffffffffffffffffffffffffffffffffffffff16815260200190815260200160002060006101000a81548160ff021916908360ff160217905550600560003373ffffffffffffffffffffffffffffffffffffffff1673ffffffffffffffffffffffffffffffffffffffff168152602001908152602001600020506003600084815260200190815260200160002073__IterableMapping_______________________63788f0f0390913360016040518463ffffffff1660e01b8152600401808481526020018373ffffffffffffffffffffffffffffffffffffffff1673ffffffffffffffffffffffffffffffffffffffff16815260200182151515158152602001935050505060206040518083038186803b158015610ee057600080fd5b505af4158015610ef4573d6000803e3d6000fd5b505050506040513d6020811015610f0a57600080fd5b810190808051906020019092919050505050823373ffffffffffffffffffffffffffffffffffffffff167f32b0e6b553b04f94f65aacc9ae0278df161d25b21a5d32be77657607e8548b938484604051808381526020018281526020019250505060405180910390a3505050565b600060026000838152602001908152602001600020549050919050565b60608060006003600085815260200190815260200160002073__IterableMapping_______________________63a21ab71690916040518263ffffffff1660e01b81526004018082815260200191505060206040518083038186803b158015610ffd57600080fd5b505af4158015611011573d6000803e3d6000fd5b505050506040513d602081101561102757600080fd5b810190808051906020019092919050505090506003600085815260200190815260200160002073__IterableMapping_______________________63c8fccc699091836040518363ffffffff1660e01b8152600401808381526020018281526020019250505060206040518083038186803b1580156110a557600080fd5b505af41580156110b9573d6000803e3d6000fd5b505050506040513d60208110156110cf57600080fd5b8101908080519060200190929190505050156111fc576000806003600087815260200190815260200160002073__IterableMapping_______________________6375a3e8e89091856040518363ffffffff1660e01b81526004018083815260200182815260200192505050604080518083038186803b15801561115257600080fd5b505af4158015611166573d6000803e3d6000fd5b505050506040513d604081101561117c57600080fd5b810190808051906020019092919080519060200190929190505050915091506001151581151514156111f057818484815181106111b557fe5b602002602001019073ffffffffffffffffffffffffffffffffffffffff16908173ffffffffffffffffffffffffffffffffffffffff16815250505b839450505050506111ff565b50505b919050565b61120c610b01565b61127e576040517f08c379a00000000000000000000000000000000000000000000000000000000081526004018080602001828103825260208152602001807f4f776e61626c653a2063616c6c6572206973206e6f7420746865206f776e657281525060200191505060405180910390fd5b611287816112e8565b50565b60046020528160005260406000206020528060005260406000206000915091509054906101000a900460ff1681565b6000806000801b905080841415806112d15750808314155b156112e05760019150506112e2565b505b92915050565b600073ffffffffffffffffffffffffffffffffffffffff168173ffffffffffffffffffffffffffffffffffffffff16141561136e576040517f08c379a000000000000000000000000000000000000000000000000000000000815260040180806020018281038252602681526020018061144d6026913960400191505060405180910390fd5b8073ffffffffffffffffffffffffffffffffffffffff166000809054906101000a900473ffffffffffffffffffffffffffffffffffffffff1673ffffffffffffffffffffffffffffffffffffffff167f8be0079c531659141344cd1fd0a4f28419497f9722a3daafe3b4186f6b6457e060405160405180910390a3806000806101000a81548173ffffffffffffffffffffffffffffffffffffffff021916908373ffffffffffffffffffffffffffffffffffffffff16021790555050565b60405180604001604052806000801916815260200160008019168152509056fe4f776e61626c653a206e6577206f776e657220697320746865207a65726f2061646472657373a165627a7a723058204b772683648114911ea3dec5534f3de7e781efe15534f55d54dc5c27624916c40029",
  "source": "pragma solidity ^0.5.0;\nimport \"../node_modules/openzeppelin-solidity/contracts/ownership/ownable.sol\";\nimport \"./iterableMapping.sol\";\n\ncontract dataShare is Ownable() {\n    // using a library for an iterable mapping\n    using IterableMapping for IterableMapping.itmap;\n    // defining a struct to hold the public key\n    struct pubkey{\n        bytes32 x;\n        bytes32 y;\n    }\n\n    // each datum is identifed by data_id, addressed by IPFS hash\n    // datum metadata can be stored in IFPS (title ,description,...)\n    uint public data_index = 0;\n    mapping (uint => bytes32) data;\n\n    // Keep track of which data is shared\n    // mapping (bytes32 => bool) dataIsShared;\n\n    // Each datum is shared with a number of users, which can be iterated on\n    // This is because we want to know all users that have content\n    // the data_id is the first key\n    // then the iterable mapping goes from address to bool, to specify if a user has access to the content\n    \n    mapping(uint => IterableMapping.itmap) users;\n\n    // access list for a given datum, by a given user (0 does not exist or was rejected, 1 was requested, 2 granted)\n    mapping (uint => mapping(address => uint8)) public access_list;\n\n    // user keys store, from where admin client will retrieve pub keys\n    mapping (address => pubkey) public user_keys;\n\n    // Events declarations\n    event LogAccessRequest(address indexed user_id, uint indexed data_id);\n    event LogAccessRequestWithPubKey(address indexed user_id, uint indexed data_id, bytes32 publicKeyX,bytes32 publicKeyY);\n    event LogDataUpdated(uint indexed data_id, bytes32 indexed IPFSaddress);\n    event LogAccessGranted(address indexed user, uint indexed data_id, bytes32 IPFSaddress);\n    event LogAccessRevoked(address indexed user, uint indexed data_id, bytes32 IPFSaddress);\n    event LogContentAdded(uint indexed data_id, bytes32 IPFSaddress);\n\n    // constructor() public {\n    //     // nothing to do except calling ownable constructor\n    // }\n// no longer needed as the content contains the keys now, which gives no attack surface to any one\n    // modifier dataNotExist(bytes32 IPFSaddress) {\n    //     require(dataIsShared[IPFSaddress],'Data already being shared');\n    //     _;\n    // }\n\n    function isPubKeyNotZero(bytes32 publicKeyX, bytes32 publicKeyY) internal pure returns (bool) {\n        // function checks if the public key is different from 0\n        bytes32 nopubkey = bytes32(0x00000000000000000000000000000000);\n        if (publicKeyX != nopubkey || publicKeyY != nopubkey) {\n            return true;\n        }\n    }\n\n    function requestAccess(uint data_id, bytes32 publicKeyX, bytes32 publicKeyY) public {\n        // This is needed to provide the public key the first time and to notify owner\n        // store pubkey, counting on js client to provide correct key.\n        // After all, no on is harmed except user if it is wrong\n        require(isPubKeyNotZero(publicKeyX,publicKeyY), \"public key cannot be 0\");\n        access_list[data_id][msg.sender] = 1;\n        user_keys[msg.sender];\n        users[data_id].insert(msg.sender,true);\n        emit LogAccessRequestWithPubKey(msg.sender, data_id, publicKeyX, publicKeyY);\n        }\n\n    function requestAccess(uint data_id) public {\n        // If the public key is already known, this is used to request access from the data owner\n        pubkey memory user_key = user_keys[msg.sender];\n        // the mapping should provide the default value if there is no entry for the msg.sender\n        require(isPubKeyNotZero(user_key.x, user_key.y), \"public key not provided yet\");\n        access_list[data_id][msg.sender] = 1;\n        users[data_id].insert(msg.sender,true);\n        emit LogAccessRequest(msg.sender, data_id);\n        }\n\n    // The owner adds content to be shared with others\n    function addContent(bytes32 IPFSaddress) public onlyOwner() {\n        uint data_id = data_index;\n        data[data_id] = IPFSaddress;\n        data_index++;\n        emit LogContentAdded(data_id, IPFSaddress);\n    }\n\n    // grant access to a particular datum, update request entry\n    function grantAccess(address user, uint data_id, bytes32 newContentLocation) public onlyOwner() {\n        access_list[data_id][user] = 2; // 2 means access granted\n        data[data_id] = newContentLocation; // because the client has added the sharedKey for user, the content is updated\n        emit LogAccessGranted(user, data_id, newContentLocation);\n    }\n    // update encrypted content and/or metadata, but not the keys\n    function updateContent(uint data_id, bytes32 IPFSaddress) public onlyOwner() {\n        data[data_id] = IPFSaddress;\n        emit LogDataUpdated(data_id, IPFSaddress);\n    }\n\n    // revoke a given user his access to a datum\n    // this is the most complex function, as every one needs a new key\n    // maybe the best way is to have the users each pay/request access again?\n    // then what they do is call the grant access again, or instead I can use broadcast encryption!\n    // This is a great idea I think - how does it work again?\n    // after thinking about it more, I think the better solution is to store the sharedKey in the IPFS document directly\n    // so this means, the only thing that changes is the access list and the IPFS address for the content\n    function revokeAccess(address user_id, uint data_id, bytes32 newContentLocation) public {\n        access_list[data_id][user_id] = 0; // 0 means access not granted\n        data[data_id] = newContentLocation; // because the web client has removed the sharedKey for user, the content is updated\n        emit LogAccessRevoked(user_id, data_id, newContentLocation);\n    }\n    // function getSharedKey(address user_id, uint data_id) public view returns (bytes32 sharedKey) {\n    //     return sharedKeys[data_id][user_id];\n    // }\n    function getDataLocation(uint data_id) public view returns (bytes32 hash) {\n        return data[data_id];\n    }\n\n    // for a given data_id, the function returns all the addresses that have access\n    function getUsersForDatum(uint data_id) public view returns ( address[] memory) {\n        address[] memory the_users;\n        for (uint i = users[data_id].iterate_start(); users[data_id].iterate_valid(i); i = users[data_id].iterate_next(i))\n        {\n            (address user, bool status) = users[data_id].iterate_get(i);\n            if (status == true) {\n               the_users[i]=user;\n            }\n        return the_users;\n        }\n    }\n\n}\n\n\n",
  "sourcePath": "/Users/Jean-Marc/Ethereum-projects/secure-data-share/contracts/dataShare.sol",
  "compiler": {
    "name": "solc",
    "version": "0.5.8+commit.23d335f2.Emscripten.clang"
  },
  "schemaVersion": "3.0.10",
  "updatedAt": "2019-07-28T04:57:22.481Z",
  "devdoc": {
    "methods": {
      "isOwner()": {
        "details": "Returns true if the caller is the current owner."
      },
      "owner()": {
        "details": "Returns the address of the current owner."
      },
      "renounceOwnership()": {
        "details": "Leaves the contract without owner. It will not be possible to call `onlyOwner` functions anymore. Can only be called by the current owner.     * > Note: Renouncing ownership will leave the contract without an owner, thereby removing any functionality that is only available to the owner."
      },
      "transferOwnership(address)": {
        "details": "Transfers ownership of the contract to a new account (`newOwner`). Can only be called by the current owner."
      }
    }
  },
  "userdoc": {
    "methods": {}
  }
}