{
  "contractName": "dataShare",
  "abi": [
    {
      "constant": false,
      "inputs": [],
      "name": "renounceOwnership",
      "outputs": [],
      "payable": false,
      "stateMutability": "nonpayable",
      "type": "function"
    },
    {
      "constant": true,
      "inputs": [],
      "name": "data_index",
      "outputs": [
        {
          "name": "",
          "type": "uint256"
        }
      ],
      "payable": false,
      "stateMutability": "view",
      "type": "function"
    },
    {
      "constant": true,
      "inputs": [],
      "name": "owner",
      "outputs": [
        {
          "name": "",
          "type": "address"
        }
      ],
      "payable": false,
      "stateMutability": "view",
      "type": "function"
    },
    {
      "constant": true,
      "inputs": [],
      "name": "isOwner",
      "outputs": [
        {
          "name": "",
          "type": "bool"
        }
      ],
      "payable": false,
      "stateMutability": "view",
      "type": "function"
    },
    {
      "constant": true,
      "inputs": [
        {
          "name": "",
          "type": "address"
        }
      ],
      "name": "user_keys",
      "outputs": [
        {
          "name": "x",
          "type": "bytes32"
        },
        {
          "name": "y",
          "type": "bytes32"
        }
      ],
      "payable": false,
      "stateMutability": "view",
      "type": "function"
    },
    {
      "constant": false,
      "inputs": [
        {
          "name": "newOwner",
          "type": "address"
        }
      ],
      "name": "transferOwnership",
      "outputs": [],
      "payable": false,
      "stateMutability": "nonpayable",
      "type": "function"
    },
    {
      "constant": true,
      "inputs": [
        {
          "name": "",
          "type": "uint256"
        },
        {
          "name": "",
          "type": "address"
        }
      ],
      "name": "access_list",
      "outputs": [
        {
          "name": "",
          "type": "uint8"
        }
      ],
      "payable": false,
      "stateMutability": "view",
      "type": "function"
    },
    {
      "anonymous": false,
      "inputs": [
        {
          "indexed": true,
          "name": "user_id",
          "type": "address"
        },
        {
          "indexed": true,
          "name": "data_id",
          "type": "uint256"
        }
      ],
      "name": "LogAccessRequest",
      "type": "event"
    },
    {
      "anonymous": false,
      "inputs": [
        {
          "indexed": true,
          "name": "user_id",
          "type": "address"
        },
        {
          "indexed": true,
          "name": "data_id",
          "type": "uint256"
        },
        {
          "indexed": false,
          "name": "publicKeyX",
          "type": "bytes32"
        },
        {
          "indexed": false,
          "name": "publicKeyY",
          "type": "bytes32"
        }
      ],
      "name": "LogAccessRequestWithPubKey",
      "type": "event"
    },
    {
      "anonymous": false,
      "inputs": [
        {
          "indexed": true,
          "name": "user",
          "type": "address"
        },
        {
          "indexed": true,
          "name": "data_id",
          "type": "uint256"
        },
        {
          "indexed": false,
          "name": "IPFSaddress",
          "type": "bytes32"
        }
      ],
      "name": "LogAccessGranted",
      "type": "event"
    },
    {
      "anonymous": false,
      "inputs": [
        {
          "indexed": true,
          "name": "user",
          "type": "address"
        },
        {
          "indexed": true,
          "name": "data_id",
          "type": "uint256"
        },
        {
          "indexed": false,
          "name": "IPFSaddress",
          "type": "bytes32"
        }
      ],
      "name": "LogAccessRevoked",
      "type": "event"
    },
    {
      "anonymous": false,
      "inputs": [
        {
          "indexed": true,
          "name": "user",
          "type": "address"
        },
        {
          "indexed": true,
          "name": "data_id",
          "type": "uint256"
        }
      ],
      "name": "LogAccessRefused",
      "type": "event"
    },
    {
      "anonymous": false,
      "inputs": [
        {
          "indexed": true,
          "name": "data_id",
          "type": "uint256"
        },
        {
          "indexed": false,
          "name": "IPFSaddress",
          "type": "bytes32"
        }
      ],
      "name": "LogContentAdded",
      "type": "event"
    },
    {
      "anonymous": false,
      "inputs": [
        {
          "indexed": true,
          "name": "data_id",
          "type": "uint256"
        },
        {
          "indexed": true,
          "name": "IPFSaddress",
          "type": "bytes32"
        }
      ],
      "name": "LogDataUpdated",
      "type": "event"
    },
    {
      "anonymous": false,
      "inputs": [],
      "name": "LogUsers_by_data",
      "type": "event"
    },
    {
      "anonymous": false,
      "inputs": [
        {
          "indexed": true,
          "name": "previousOwner",
          "type": "address"
        },
        {
          "indexed": true,
          "name": "newOwner",
          "type": "address"
        }
      ],
      "name": "OwnershipTransferred",
      "type": "event"
    },
    {
      "constant": false,
      "inputs": [
        {
          "name": "data_id",
          "type": "uint256"
        },
        {
          "name": "publicKeyX",
          "type": "bytes32"
        },
        {
          "name": "publicKeyY",
          "type": "bytes32"
        }
      ],
      "name": "requestAccessWithKey",
      "outputs": [],
      "payable": false,
      "stateMutability": "nonpayable",
      "type": "function"
    },
    {
      "constant": false,
      "inputs": [
        {
          "name": "data_id",
          "type": "uint256"
        }
      ],
      "name": "requestAccess",
      "outputs": [],
      "payable": false,
      "stateMutability": "nonpayable",
      "type": "function"
    },
    {
      "constant": false,
      "inputs": [
        {
          "name": "IPFSaddress",
          "type": "bytes32"
        }
      ],
      "name": "addContent",
      "outputs": [],
      "payable": false,
      "stateMutability": "nonpayable",
      "type": "function"
    },
    {
      "constant": false,
      "inputs": [
        {
          "name": "user",
          "type": "address"
        },
        {
          "name": "data_id",
          "type": "uint256"
        },
        {
          "name": "newContentLocation",
          "type": "bytes32"
        }
      ],
      "name": "grantAccess",
      "outputs": [],
      "payable": false,
      "stateMutability": "nonpayable",
      "type": "function"
    },
    {
      "constant": false,
      "inputs": [
        {
          "name": "user_id",
          "type": "address"
        },
        {
          "name": "data_id",
          "type": "uint256"
        }
      ],
      "name": "refuseAccess",
      "outputs": [],
      "payable": false,
      "stateMutability": "nonpayable",
      "type": "function"
    },
    {
      "constant": false,
      "inputs": [
        {
          "name": "user_id",
          "type": "address"
        },
        {
          "name": "data_id",
          "type": "uint256"
        },
        {
          "name": "newContentLocation",
          "type": "bytes32"
        }
      ],
      "name": "revokeAccess",
      "outputs": [],
      "payable": false,
      "stateMutability": "nonpayable",
      "type": "function"
    },
    {
      "constant": true,
      "inputs": [
        {
          "name": "data_id",
          "type": "uint256"
        }
      ],
      "name": "getDataLocation",
      "outputs": [
        {
          "name": "hash",
          "type": "bytes32"
        }
      ],
      "payable": false,
      "stateMutability": "view",
      "type": "function"
    },
    {
      "constant": false,
      "inputs": [
        {
          "name": "data_id",
          "type": "uint256"
        },
        {
          "name": "IPFSaddress",
          "type": "bytes32"
        }
      ],
      "name": "updateContent",
      "outputs": [],
      "payable": false,
      "stateMutability": "nonpayable",
      "type": "function"
    },
    {
      "constant": true,
      "inputs": [
        {
          "name": "data_id",
          "type": "uint256"
        }
      ],
      "name": "getAuthorizedUsersForDatum",
      "outputs": [
        {
          "name": "r_the_users",
          "type": "address[]"
        }
      ],
      "payable": false,
      "stateMutability": "view",
      "type": "function"
    },
    {
      "constant": true,
      "inputs": [],
      "name": "getAllPendingRequests",
      "outputs": [
        {
          "name": "r_data_ids",
          "type": "uint256[]"
        },
        {
          "name": "r_users",
          "type": "address[]"
        }
      ],
      "payable": false,
      "stateMutability": "view",
      "type": "function"
    },
    {
      "constant": true,
      "inputs": [
        {
          "name": "data_id",
          "type": "uint256"
        },
        {
          "name": "user",
          "type": "address"
        }
      ],
      "name": "getUserStatusForDatum",
      "outputs": [
        {
          "name": "status",
          "type": "uint256"
        }
      ],
      "payable": false,
      "stateMutability": "view",
      "type": "function"
    },
    {
      "constant": true,
      "inputs": [
        {
          "name": "user",
          "type": "address"
        }
      ],
      "name": "getPublicKey",
      "outputs": [
        {
          "name": "pubx",
          "type": "bytes32"
        },
        {
          "name": "puby",
          "type": "bytes32"
        }
      ],
      "payable": false,
      "stateMutability": "view",
      "type": "function"
    }
  ],
  "bytecode": "0x60806040526000600155336000806101000a81548173ffffffffffffffffffffffffffffffffffffffff021916908373ffffffffffffffffffffffffffffffffffffffff1602179055506000809054906101000a900473ffffffffffffffffffffffffffffffffffffffff1673ffffffffffffffffffffffffffffffffffffffff16600073ffffffffffffffffffffffffffffffffffffffff167f8be0079c531659141344cd1fd0a4f28419497f9722a3daafe3b4186f6b6457e060405160405180910390a3612012806100d46000396000f3fe608060405234801561001057600080fd5b50600436106101215760003560e01c80637fdc2cdc116100ad578063b59c630111610071578063b59c630114610548578063b75778b114610580578063d332bf49146105d8578063f2fde38b1461061a578063fb3892d21461065e57610121565b80637fdc2cdc146103f0578063857cdbb81461041e5780638da5cb5b1461047d5780638f32d59b146104c75780639419b513146104e957610121565b806356536ab2116100f457806356536ab2146102915780636719245d146102bf5780636bd05f3514610321578063715018a6146103c8578063732b4782146103d257610121565b8063106602c21461012657806311dc9f1f146101745780632cfa4747146101f7578063329812bd14610239575b600080fd5b6101726004803603604081101561013c57600080fd5b81019080803573ffffffffffffffffffffffffffffffffffffffff169060200190929190803590602001909291905050506106c6565b005b6101a06004803603602081101561018a57600080fd5b8101908080359060200190929190505050610792565b6040518080602001828103825283818151815260200191508051906020019060200280838360005b838110156101e35780820151818401526020810190506101c8565b505050509050019250505060405180910390f35b6102376004803603606081101561020d57600080fd5b81019080803590602001909291908035906020019092919080359060200190929190505050610a07565b005b61028f6004803603606081101561024f57600080fd5b81019080803573ffffffffffffffffffffffffffffffffffffffff1690602001909291908035906020019092919080359060200190929190505050610bd7565b005b6102bd600480360360208110156102a757600080fd5b8101908080359060200190929190505050610d27565b005b61030b600480360360408110156102d557600080fd5b8101908080359060200190929190803573ffffffffffffffffffffffffffffffffffffffff169060200190929190505050610e0e565b6040518082815260200191505060405180910390f35b610329610e7c565b604051808060200180602001838103835285818151815260200191508051906020019060200280838360005b83811015610370578082015181840152602081019050610355565b50505050905001838103825284818151815260200191508051906020019060200280838360005b838110156103b2578082015181840152602081019050610397565b5050505090500194505050505060405180910390f35b6103d061115f565b005b6103da611298565b6040518082815260200191505060405180910390f35b61041c6004803603602081101561040657600080fd5b810190808035906020019092919050505061129e565b005b6104606004803603602081101561043457600080fd5b81019080803573ffffffffffffffffffffffffffffffffffffffff169060200190929190505050611453565b604051808381526020018281526020019250505060405180910390f35b6104856114e5565b604051808273ffffffffffffffffffffffffffffffffffffffff1673ffffffffffffffffffffffffffffffffffffffff16815260200191505060405180910390f35b6104cf61150e565b604051808215151515815260200191505060405180910390f35b61052b600480360360208110156104ff57600080fd5b81019080803573ffffffffffffffffffffffffffffffffffffffff169060200190929190505050611565565b604051808381526020018281526020019250505060405180910390f35b61057e6004803603604081101561055e57600080fd5b810190808035906020019092919080359060200190929190505050611589565b005b6105d66004803603606081101561059657600080fd5b81019080803573ffffffffffffffffffffffffffffffffffffffff169060200190929190803590602001909291908035906020019092919050505061164d565b005b610604600480360360208110156105ee57600080fd5b810190808035906020019092919050505061173d565b6040518082815260200191505060405180910390f35b61065c6004803603602081101561063057600080fd5b81019080803573ffffffffffffffffffffffffffffffffffffffff16906020019092919050505061175a565b005b6106aa6004803603604081101561067457600080fd5b8101908080359060200190929190803573ffffffffffffffffffffffffffffffffffffffff1690602001909291905050506117e0565b604051808260ff1660ff16815260200191505060405180910390f35b6106ce61150e565b610740576040517f08c379a00000000000000000000000000000000000000000000000000000000081526004018080602001828103825260208152602001807f4f776e61626c653a2063616c6c6572206973206e6f7420746865206f776e657281525060200191505060405180910390fd5b61074a818361180f565b808273ffffffffffffffffffffffffffffffffffffffff167f3d0cad026f2ac53250b0fd7dfffb4c4f4800767994b69eb9be1987edb4f2678060405160405180910390a35050565b6060600080905060006107a4846118d3565b90506000600460008681526020019081526020016000208054905090506060826040519080825280602002602001820160405280156107f25781602001602082028038833980820191505090505b50905060008090505b828110156109fa5780600360008981526020019081526020016000206000600460008b8152602001908152602001600020848154811061083757fe5b9060005260206000200160009054906101000a900473ffffffffffffffffffffffffffffffffffffffff1673ffffffffffffffffffffffffffffffffffffffff1673ffffffffffffffffffffffffffffffffffffffff1681526020019081526020016000205414156109ed576002600560008981526020019081526020016000206000600460008b815260200190815260200160002084815481106108d857fe5b9060005260206000200160009054906101000a900473ffffffffffffffffffffffffffffffffffffffff1673ffffffffffffffffffffffffffffffffffffffff1673ffffffffffffffffffffffffffffffffffffffff16815260200190815260200160002060009054906101000a900460ff1660ff1614156109ec5760046000888152602001908152602001600020818154811061097257fe5b9060005260206000200160009054906101000a900473ffffffffffffffffffffffffffffffffffffffff168286815181106109a957fe5b602002602001019073ffffffffffffffffffffffffffffffffffffffff16908173ffffffffffffffffffffffffffffffffffffffff168152505084806001019550505b5b80806001019150506107fb565b5080945050505050919050565b6001548310610a7e576040517f08c379a00000000000000000000000000000000000000000000000000000000081526004018080602001828103825260138152602001807f6461746120646f6573206e6f742065786973740000000000000000000000000081525060200191505060405180910390fd5b610a888282611a34565b610afa576040517f08c379a00000000000000000000000000000000000000000000000000000000081526004018080602001828103825260168152602001807f7075626c6963206b65792063616e6e6f7420626520300000000000000000000081525060200191505060405180910390fd5b610b02611fa0565b604051806040016040528084815260200183815250905080600660003373ffffffffffffffffffffffffffffffffffffffff1673ffffffffffffffffffffffffffffffffffffffff1681526020019081526020016000206000820151816000015560208201518160010155905050610b7a8433611a63565b833373ffffffffffffffffffffffffffffffffffffffff167f32b0e6b553b04f94f65aacc9ae0278df161d25b21a5d32be77657607e8548b938585604051808381526020018281526020019250505060405180910390a350505050565b610bdf61150e565b610c51576040517f08c379a00000000000000000000000000000000000000000000000000000000081526004018080602001828103825260208152602001807f4f776e61626c653a2063616c6c6572206973206e6f7420746865206f776e657281525060200191505060405180910390fd5b60026005600084815260200190815260200160002060008573ffffffffffffffffffffffffffffffffffffffff1673ffffffffffffffffffffffffffffffffffffffff16815260200190815260200160002060006101000a81548160ff021916908360ff160217905550806002600084815260200190815260200160002081905550818373ffffffffffffffffffffffffffffffffffffffff167f54f0a7ff1c18023c962630facbcb3059a614ef3bc89d62636fadc8368b529f2c836040518082815260200191505060405180910390a3505050565b610d2f61150e565b610da1576040517f08c379a00000000000000000000000000000000000000000000000000000000081526004018080602001828103825260208152602001807f4f776e61626c653a2063616c6c6572206973206e6f7420746865206f776e657281525060200191505060405180910390fd5b60006001549050816002600083815260200190815260200160002081905550600160008154809291906001019190505550807f2b1a1ef07172cf19cbb5f71c02d0d05c3d50d790f01e035054f26c2018422856836040518082815260200191505060405180910390a25050565b60006005600084815260200190815260200160002060008373ffffffffffffffffffffffffffffffffffffffff1673ffffffffffffffffffffffffffffffffffffffff16815260200190815260200160002060009054906101000a900460ff1660ff16905080905092915050565b60608060008090506000610e8e611c9d565b9050606081604051908082528060200260200182016040528015610ec15781602001602082028038833980820191505090505b509050606082604051908082528060200260200182016040528015610ef55781602001602082028038833980820191505090505b50905060008090505b6001548110156111505760006004600083815260200190815260200160002080549050905060008090505b818110156111415780600360008581526020019081526020016000206000600460008781526020019081526020016000208481548110610f6557fe5b9060005260206000200160009054906101000a900473ffffffffffffffffffffffffffffffffffffffff1673ffffffffffffffffffffffffffffffffffffffff1673ffffffffffffffffffffffffffffffffffffffff16815260200190815260200160002054141561113457600160056000858152602001908152602001600020600060046000878152602001908152602001600020848154811061100657fe5b9060005260206000200160009054906101000a900473ffffffffffffffffffffffffffffffffffffffff1673ffffffffffffffffffffffffffffffffffffffff1673ffffffffffffffffffffffffffffffffffffffff16815260200190815260200160002060009054906101000a900460ff1660ff161415611133578285888151811061108f57fe5b6020026020010181815250506004600084815260200190815260200160002081815481106110b957fe5b9060005260206000200160009054906101000a900473ffffffffffffffffffffffffffffffffffffffff168488815181106110f057fe5b602002602001019073ffffffffffffffffffffffffffffffffffffffff16908173ffffffffffffffffffffffffffffffffffffffff168152505086806001019750505b5b8080600101915050610f29565b50508080600101915050610efe565b50818195509550505050509091565b61116761150e565b6111d9576040517f08c379a00000000000000000000000000000000000000000000000000000000081526004018080602001828103825260208152602001807f4f776e61626c653a2063616c6c6572206973206e6f7420746865206f776e657281525060200191505060405180910390fd5b600073ffffffffffffffffffffffffffffffffffffffff166000809054906101000a900473ffffffffffffffffffffffffffffffffffffffff1673ffffffffffffffffffffffffffffffffffffffff167f8be0079c531659141344cd1fd0a4f28419497f9722a3daafe3b4186f6b6457e060405160405180910390a360008060006101000a81548173ffffffffffffffffffffffffffffffffffffffff021916908373ffffffffffffffffffffffffffffffffffffffff160217905550565b60015481565b6112a6611fa0565b600660003373ffffffffffffffffffffffffffffffffffffffff1673ffffffffffffffffffffffffffffffffffffffff168152602001908152602001600020604051806040016040529081600082015481526020016001820154815250509050600154821061137d576040517f08c379a00000000000000000000000000000000000000000000000000000000081526004018080602001828103825260138152602001807f6461746120646f6573206e6f742065786973740000000000000000000000000081525060200191505060405180910390fd5b61138f81600001518260200151611a34565b611401576040517f08c379a000000000000000000000000000000000000000000000000000000000815260040180806020018281038252601b8152602001807f7075626c6963206b6579206e6f742070726f766964656420796574000000000081525060200191505060405180910390fd5b61140b8233611a63565b813373ffffffffffffffffffffffffffffffffffffffff167fa5165aacfe032d6a5ec606938478273abcaa3a1f1b828bf30c97ef556db47b2260405160405180910390a35050565b600080600660008473ffffffffffffffffffffffffffffffffffffffff1673ffffffffffffffffffffffffffffffffffffffff16815260200190815260200160002060000154600660008573ffffffffffffffffffffffffffffffffffffffff1673ffffffffffffffffffffffffffffffffffffffff1681526020019081526020016000206001015491509150915091565b60008060009054906101000a900473ffffffffffffffffffffffffffffffffffffffff16905090565b60008060009054906101000a900473ffffffffffffffffffffffffffffffffffffffff1673ffffffffffffffffffffffffffffffffffffffff163373ffffffffffffffffffffffffffffffffffffffff1614905090565b60066020528060005260406000206000915090508060000154908060010154905082565b61159161150e565b611603576040517f08c379a00000000000000000000000000000000000000000000000000000000081526004018080602001828103825260208152602001807f4f776e61626c653a2063616c6c6572206973206e6f7420746865206f776e657281525060200191505060405180910390fd5b80600260008481526020019081526020016000208190555080827f935f9715dd016909ca5676266bde959e3ac2a0bea6fb43abf17870d8077975f860405160405180910390a35050565b61165561150e565b6116c7576040517f08c379a00000000000000000000000000000000000000000000000000000000081526004018080602001828103825260208152602001807f4f776e61626c653a2063616c6c6572206973206e6f7420746865206f776e657281525060200191505060405180910390fd5b6116d1828461180f565b806002600084815260200190815260200160002081905550818373ffffffffffffffffffffffffffffffffffffffff167f4be698563e7cb077b8572d8a1638cc35f3f48238b327d3d5bd0e2f2c188f13bf836040518082815260200191505060405180910390a3505050565b600060026000838152602001908152602001600020549050919050565b61176261150e565b6117d4576040517f08c379a00000000000000000000000000000000000000000000000000000000081526004018080602001828103825260208152602001807f4f776e61626c653a2063616c6c6572206973206e6f7420746865206f776e657281525060200191505060405180910390fd5b6117dd81611e5c565b50565b60056020528160005260406000206020528060005260406000206000915091509054906101000a900460ff1681565b60006003600084815260200190815260200160002060008373ffffffffffffffffffffffffffffffffffffffff1673ffffffffffffffffffffffffffffffffffffffff1681526020019081526020016000208190555060006005600084815260200190815260200160002060008373ffffffffffffffffffffffffffffffffffffffff1673ffffffffffffffffffffffffffffffffffffffff16815260200190815260200160002060006101000a81548160ff021916908360ff1602179055505050565b6000806000905060006004600085815260200190815260200160002080549050905060008090505b81811015611a2957600060046000878152602001908152602001600020828154811061192357fe5b9060005260206000200160009054906101000a900473ffffffffffffffffffffffffffffffffffffffff169050816003600088815260200190815260200160002060008373ffffffffffffffffffffffffffffffffffffffff1673ffffffffffffffffffffffffffffffffffffffff168152602001908152602001600020541415611a1b5760026005600088815260200190815260200160002060008373ffffffffffffffffffffffffffffffffffffffff1673ffffffffffffffffffffffffffffffffffffffff16815260200190815260200160002060009054906101000a900460ff1660ff161415611a1a5783806001019450505b5b5080806001019150506118fb565b508192505050919050565b6000806000801b90508084141580611a4c5750808314155b15611a5b576001915050611a5d565b505b92915050565b60006003600084815260200190815260200160002060008373ffffffffffffffffffffffffffffffffffffffff1673ffffffffffffffffffffffffffffffffffffffff168152602001908152602001600020541415611c99576000600460008481526020019081526020016000208054905090506000811415611b615760046000848152602001908152602001600020600090806001815401808255809150509060018203906000526020600020016000909192909190916101000a81548173ffffffffffffffffffffffffffffffffffffffff021916908373ffffffffffffffffffffffffffffffffffffffff1602179055505080806001019150505b806003600085815260200190815260200160002060008473ffffffffffffffffffffffffffffffffffffffff1673ffffffffffffffffffffffffffffffffffffffff16815260200190815260200160002081905550600460008481526020019081526020016000208290806001815401808255809150509060018203906000526020600020016000909192909190916101000a81548173ffffffffffffffffffffffffffffffffffffffff021916908373ffffffffffffffffffffffffffffffffffffffff1602179055505060016005600085815260200190815260200160002060008473ffffffffffffffffffffffffffffffffffffffff1673ffffffffffffffffffffffffffffffffffffffff16815260200190815260200160002060006101000a81548160ff021916908360ff160217905550505b5050565b6000806000905060008090505b600154811015611e545760006004600083815260200190815260200160002080549050905060008090505b81811015611e455780600360008581526020019081526020016000206000600460008781526020019081526020016000208481548110611d1157fe5b9060005260206000200160009054906101000a900473ffffffffffffffffffffffffffffffffffffffff1673ffffffffffffffffffffffffffffffffffffffff1673ffffffffffffffffffffffffffffffffffffffff168152602001908152602001600020541415611e38576001600560008581526020019081526020016000206000600460008781526020019081526020016000208481548110611db257fe5b9060005260206000200160009054906101000a900473ffffffffffffffffffffffffffffffffffffffff1673ffffffffffffffffffffffffffffffffffffffff1673ffffffffffffffffffffffffffffffffffffffff16815260200190815260200160002060009054906101000a900460ff1660ff161415611e375783806001019450505b5b8080600101915050611cd5565b50508080600101915050611caa565b508091505090565b600073ffffffffffffffffffffffffffffffffffffffff168173ffffffffffffffffffffffffffffffffffffffff161415611ee2576040517f08c379a0000000000000000000000000000000000000000000000000000000008152600401808060200182810382526026815260200180611fc16026913960400191505060405180910390fd5b8073ffffffffffffffffffffffffffffffffffffffff166000809054906101000a900473ffffffffffffffffffffffffffffffffffffffff1673ffffffffffffffffffffffffffffffffffffffff167f8be0079c531659141344cd1fd0a4f28419497f9722a3daafe3b4186f6b6457e060405160405180910390a3806000806101000a81548173ffffffffffffffffffffffffffffffffffffffff021916908373ffffffffffffffffffffffffffffffffffffffff16021790555050565b60405180604001604052806000801916815260200160008019168152509056fe4f776e61626c653a206e6577206f776e657220697320746865207a65726f2061646472657373a165627a7a723058204364b2f81bf58bc24ec412dc763f4c530df07c6b470839b8d1cb2c56ff078f5e0029",
  "source": "pragma solidity ^0.5.0;\nimport \"../node_modules/openzeppelin-solidity/contracts/ownership/ownable.sol\";\n\ncontract dataShare is Ownable() {\n    // defining a struct to hold the public key\n    struct pubkey{\n        bytes32 x;\n        bytes32 y;\n    }\n\n    // each datum is identifed by data_id, addressed by IPFS hash\n    // datum metadata can be stored in IFPS (title ,description,...)\n    uint public data_index = 0;\n    mapping (uint => bytes32) data;\n\n    // for each data_id, there is an array of addresses mapping to a bool to signify if it exists\n    // when a request for access is made the user is added at the end of the users_by_data array\n    // but only if user_indexes_by_data for it is 0, otherwise the index stays the same\n    // when a request is rejected, or access is revoked the user index gets set zero\n    mapping(uint => mapping(address => uint)) user_indexes_by_data;\n    mapping(uint => address[]) users_by_data;\n\n    // access list for a given datum, by a given user (0 does not exist or was rejected, 1 was requested, 2 granted)\n    mapping (uint => mapping(address => uint8)) public access_list;\n\n    // user keys store, from where admin client will retrieve pub keys\n    mapping (address => pubkey) public user_keys;\n\n    // Events declarations\n    event LogAccessRequest(address indexed user_id, uint indexed data_id);\n    event LogAccessRequestWithPubKey(address indexed user_id, uint indexed data_id, bytes32 publicKeyX,bytes32 publicKeyY);\n    event LogAccessGranted(address indexed user, uint indexed data_id, bytes32 IPFSaddress);\n    event LogAccessRevoked(address indexed user, uint indexed data_id, bytes32 IPFSaddress);\n    event LogAccessRefused(address indexed user, uint indexed data_id);\n    event LogContentAdded(uint indexed data_id, bytes32 IPFSaddress);\n    event LogDataUpdated(uint indexed data_id, bytes32 indexed IPFSaddress);\n    event LogUsers_by_data();\n\n    // event debugInt(uint indexed debugUINT);\n\n\n    // constructor() public {\n    //     // nothing to do except calling ownable constructor\n    // }\n// no longer needed as the content contains the keys now, which gives no attack surface to any one\n    // modifier dataNotExist(bytes32 IPFSaddress) {\n    //     require(dataIsShared[IPFSaddress],'Data already being shared');\n    //     _;\n    // }\n\n    // Add user - in charge of keeping all the data structures in synch\n    function addUserByData(uint data_id, address user) internal {\n        // if the user is not yet referenced in the index we can try to add it\n        if (user_indexes_by_data[data_id][user] == 0) {\n            uint nb_users = users_by_data[data_id].length;\n            // if no user has been added, we add address 0 to slot 0\n            // slot 0 is used in index mapping to designate an unreferenced user\n            if ( nb_users == 0) {\n                users_by_data[data_id].push(address(0));\n                nb_users++;\n            }\n            // update the index mapping for user to point at the right slot\n            user_indexes_by_data[data_id][user] = nb_users;\n            // actually create the user entry\n            users_by_data[data_id].push(user);\n            // update the access list, setting the request status to 'requested' (1)\n            access_list[data_id][user] = 1;\n        }\n    }\n    // Remove user - in charge of keeping all the data structures in synch\n    function removeUserByData(uint data_id, address user) internal {\n        user_indexes_by_data[data_id][user] = 0;\n        access_list[data_id][user] = 0;\n    }\n\n    function isPubKeyNotZero(bytes32 publicKeyX, bytes32 publicKeyY) internal pure returns (bool) {\n        // function checks if the public key is different from 0\n        bytes32 nopubkey = bytes32(0x0000000000000000000000000000000000000000000000000000000000000000);\n        if (publicKeyX != nopubkey || publicKeyY != nopubkey) {\n            return true;\n        }\n    }\n\n    function requestAccessWithKey(uint data_id, bytes32 publicKeyX, bytes32 publicKeyY) public {\n        // This is needed to provide the public key the first time and to notify owner\n        // store pubkey, counting on js client to provide correct key.\n        // After all, no on is harmed except user if it is wrong\n        require((data_id < data_index), \"data does not exist\");\n        require(isPubKeyNotZero(publicKeyX,publicKeyY), \"public key cannot be 0\");\n        // emit debugInt(access_list[data_id][msg.sender]);\n        pubkey memory publicKey = pubkey(publicKeyX,publicKeyY);\n        user_keys[msg.sender] = publicKey;\n        addUserByData(data_id,msg.sender);\n        emit LogAccessRequestWithPubKey(msg.sender, data_id, publicKeyX, publicKeyY);\n        }\n\n    function requestAccess(uint data_id) public {\n        // If the public key is already known, this is used to request access from the data owner\n        pubkey memory user_key = user_keys[msg.sender];\n        // the mapping should provide the default value if there is no entry for the msg.sender\n        require((data_id < data_index), \"data does not exist\");\n        require(isPubKeyNotZero(user_key.x, user_key.y), \"public key not provided yet\");\n        addUserByData(data_id,msg.sender);\n        // emit debugInt(access_list[data_id][msg.sender]);\n        emit LogAccessRequest(msg.sender, data_id);\n        }\n\n    // The owner adds content to be shared with others\n    function addContent(bytes32 IPFSaddress) public onlyOwner() {\n        uint data_id = data_index;\n        data[data_id] = IPFSaddress;\n        data_index++;\n        emit LogContentAdded(data_id, IPFSaddress);\n    }\n\n    // grant access to a particular datum, update request entry\n    // because the shared key is stored on IPFS, it will result in a new location\n    // this means the web client has already done all the computation and simply\n    // records it here to share with the users\n    function grantAccess(address user, uint data_id, bytes32 newContentLocation) public onlyOwner() {\n        access_list[data_id][user] = 2; // 2 means access granted\n        data[data_id] = newContentLocation; // because the client has added the sharedKey for user, the content is updated\n        emit LogAccessGranted(user, data_id, newContentLocation);\n    }\n\n    // the owner has decided to reject a user's request to share data\n    function refuseAccess(address user_id, uint data_id) public onlyOwner(){\n        removeUserByData(data_id,user_id);\n        emit LogAccessRefused(user_id, data_id);\n    }\n\n    // revoke a given user his access to a datum\n    // this is the most complex function, as every one needs a new key\n    // maybe the best way is to have the users each pay/request access again?\n    // then what they do is call the grant access again, or instead I can use broadcast encryption!\n    // This is a great idea I think - how does it work again?\n    // after thinking about it more, I think the better solution is to store the sharedKey in the IPFS document directly\n    // so this means, the only thing that changes is the access list and the IPFS address for the content\n    function revokeAccess(address user_id, uint data_id, bytes32 newContentLocation) public onlyOwner() {\n        removeUserByData(data_id,user_id);\n        data[data_id] = newContentLocation; // because the web client has removed the sharedKey for user, the content is updated\n        emit LogAccessRevoked(user_id, data_id, newContentLocation);\n    }\n    // function getSharedKey(address user_id, uint data_id) public view returns (bytes32 sharedKey) {\n    //     return sharedKeys[data_id][user_id];\n    // }\n    function getDataLocation(uint data_id) public view returns (bytes32 hash) {\n        return data[data_id];\n    }\n\n    // update encrypted content and/or metadata, but not the keys\n    function updateContent(uint data_id, bytes32 IPFSaddress) public onlyOwner() {\n        data[data_id] = IPFSaddress;\n        emit LogDataUpdated(data_id, IPFSaddress);\n    }\n    // for a given data_id count the number of granted requests\n    function countAuthorizedUsers(uint data_id) internal view returns (uint requestCount) {\n        uint authorizedCount = 0;\n        uint nb_users = users_by_data[data_id].length;\n        for (uint i = 0; i < nb_users ; i++)\n        {\n            address current_user = users_by_data[data_id][i];\n            // tricky next line - since the user is not removed from the array\n            // you need to verify that the index matches that of user_indexes_by_data[data_id][current_user\n            if (user_indexes_by_data[data_id][current_user] == i) {\n                if (access_list[data_id][current_user] == 2) {\n                    authorizedCount++;\n                }\n            }\n        }\n        return authorizedCount;\n    }\n\n    // for a given data_id, the function returns all the addresses that have access\n    function getAuthorizedUsersForDatum(uint data_id) public view returns ( address[] memory r_the_users) {\n        uint array_index = 0;\n        uint array_size = countAuthorizedUsers(data_id);\n        uint nb_users = users_by_data[data_id].length;\n        address[] memory the_users = new address[](array_size);\n        for (uint i = 0; i < nb_users ; i++)\n        {\n            if (user_indexes_by_data[data_id][users_by_data[data_id][i]] == i) {\n                if (access_list[data_id][users_by_data[data_id][i]] == 2) {\n                    the_users[array_index] = (users_by_data[data_id][i]);\n                    array_index++;\n                }\n            }\n        }\n        return the_users;\n    }\n    function countPendingRequests() internal view returns (uint) {\n        uint count_requested = 0;\n        for (uint datum = 0; datum < data_index; datum++)\n        {\n\n            uint nb_users = users_by_data[datum].length;\n            for (uint i = 0; i < nb_users; i++)\n            {\n                if (user_indexes_by_data[datum][users_by_data[datum][i]] == i) {\n                    if (access_list[datum][users_by_data[datum][i]] == 1) {\n                        count_requested++;\n                    }\n                }\n            }\n        }\n        return count_requested;\n    }\n\n     // The function returns all the pending requests\n    function getAllPendingRequests() external view returns ( uint[] memory r_data_ids, address[] memory r_users) {\n        uint array_index = 0;\n        uint array_size = countPendingRequests();\n        uint[] memory data_ids = new uint[](array_size);\n        address[] memory users = new address[](array_size);\n\n        for (uint datum = 0; datum < data_index; datum++)\n        {\n            uint nb_users = users_by_data[datum].length;\n            for (uint i = 0; i < nb_users; i++)\n            {\n                if (user_indexes_by_data[datum][users_by_data[datum][i]] == i) {\n                    if (access_list[datum][users_by_data[datum][i]] == 1) {\n                        data_ids[array_index] = (datum);\n                        users[array_index] = (users_by_data[datum][i]);\n                        array_index++;\n                    }\n                }\n            }\n        }\n        return (data_ids,users);\n\n    }\n\n\n    // for a given data_id and user, the function returns the access status\n    function getUserStatusForDatum(uint data_id, address user) public view returns (uint status) {\n        status = access_list[data_id][user];\n        //emit debugInt(status);\n        return status;\n    }\n\n    // for a given user, return the public key\n    function getPublicKey(address user) public view returns (bytes32 pubx, bytes32 puby) {\n        return(user_keys[user].x,user_keys[user].y);\n    }\n\n}\n\n\n",
  "sourcePath": "/Users/Jean-Marc/Ethereum-projects/secure-data-share/contracts/dataShare.sol",
  "compiler": {
    "name": "solc",
    "version": "0.5.8+commit.23d335f2.Emscripten.clang"
  },
  "schemaVersion": "3.0.10",
  "updatedAt": "2019-07-31T04:55:20.286Z",
  "devdoc": {
    "methods": {
      "isOwner()": {
        "details": "Returns true if the caller is the current owner."
      },
      "owner()": {
        "details": "Returns the address of the current owner."
      },
      "renounceOwnership()": {
        "details": "Leaves the contract without owner. It will not be possible to call `onlyOwner` functions anymore. Can only be called by the current owner.     * > Note: Renouncing ownership will leave the contract without an owner, thereby removing any functionality that is only available to the owner."
      },
      "transferOwnership(address)": {
        "details": "Transfers ownership of the contract to a new account (`newOwner`). Can only be called by the current owner."
      }
    }
  },
  "userdoc": {
    "methods": {}
  }
}