{
  "contractName": "dataShare",
  "abi": [
    {
      "constant": false,
      "inputs": [],
      "name": "renounceOwnership",
      "outputs": [],
      "payable": false,
      "stateMutability": "nonpayable",
      "type": "function"
    },
    {
      "constant": true,
      "inputs": [],
      "name": "data_index",
      "outputs": [
        {
          "name": "",
          "type": "uint256"
        }
      ],
      "payable": false,
      "stateMutability": "view",
      "type": "function"
    },
    {
      "constant": true,
      "inputs": [],
      "name": "owner",
      "outputs": [
        {
          "name": "",
          "type": "address"
        }
      ],
      "payable": false,
      "stateMutability": "view",
      "type": "function"
    },
    {
      "constant": true,
      "inputs": [],
      "name": "isOwner",
      "outputs": [
        {
          "name": "",
          "type": "bool"
        }
      ],
      "payable": false,
      "stateMutability": "view",
      "type": "function"
    },
    {
      "constant": true,
      "inputs": [
        {
          "name": "",
          "type": "address"
        }
      ],
      "name": "user_keys",
      "outputs": [
        {
          "name": "x",
          "type": "bytes32"
        },
        {
          "name": "y",
          "type": "bytes32"
        }
      ],
      "payable": false,
      "stateMutability": "view",
      "type": "function"
    },
    {
      "constant": false,
      "inputs": [
        {
          "name": "newOwner",
          "type": "address"
        }
      ],
      "name": "transferOwnership",
      "outputs": [],
      "payable": false,
      "stateMutability": "nonpayable",
      "type": "function"
    },
    {
      "constant": true,
      "inputs": [
        {
          "name": "",
          "type": "uint256"
        },
        {
          "name": "",
          "type": "address"
        }
      ],
      "name": "access_list",
      "outputs": [
        {
          "name": "",
          "type": "uint8"
        }
      ],
      "payable": false,
      "stateMutability": "view",
      "type": "function"
    },
    {
      "anonymous": false,
      "inputs": [
        {
          "indexed": true,
          "name": "user_id",
          "type": "address"
        },
        {
          "indexed": true,
          "name": "data_id",
          "type": "uint256"
        }
      ],
      "name": "LogAccessRequest",
      "type": "event"
    },
    {
      "anonymous": false,
      "inputs": [
        {
          "indexed": true,
          "name": "user_id",
          "type": "address"
        },
        {
          "indexed": true,
          "name": "data_id",
          "type": "uint256"
        },
        {
          "indexed": false,
          "name": "publicKeyX",
          "type": "bytes32"
        },
        {
          "indexed": false,
          "name": "publicKeyY",
          "type": "bytes32"
        }
      ],
      "name": "LogAccessRequestWithPubKey",
      "type": "event"
    },
    {
      "anonymous": false,
      "inputs": [
        {
          "indexed": true,
          "name": "user",
          "type": "address"
        },
        {
          "indexed": true,
          "name": "data_id",
          "type": "uint256"
        },
        {
          "indexed": false,
          "name": "IPFSaddress",
          "type": "bytes32"
        }
      ],
      "name": "LogAccessGranted",
      "type": "event"
    },
    {
      "anonymous": false,
      "inputs": [
        {
          "indexed": true,
          "name": "user",
          "type": "address"
        },
        {
          "indexed": true,
          "name": "data_id",
          "type": "uint256"
        },
        {
          "indexed": false,
          "name": "IPFSaddress",
          "type": "bytes32"
        }
      ],
      "name": "LogAccessRevoked",
      "type": "event"
    },
    {
      "anonymous": false,
      "inputs": [
        {
          "indexed": true,
          "name": "user",
          "type": "address"
        },
        {
          "indexed": true,
          "name": "data_id",
          "type": "uint256"
        }
      ],
      "name": "LogAccessRefused",
      "type": "event"
    },
    {
      "anonymous": false,
      "inputs": [
        {
          "indexed": true,
          "name": "data_id",
          "type": "uint256"
        },
        {
          "indexed": false,
          "name": "IPFSaddress",
          "type": "bytes32"
        }
      ],
      "name": "LogContentAdded",
      "type": "event"
    },
    {
      "anonymous": false,
      "inputs": [
        {
          "indexed": true,
          "name": "data_id",
          "type": "uint256"
        },
        {
          "indexed": true,
          "name": "IPFSaddress",
          "type": "bytes32"
        }
      ],
      "name": "LogDataUpdated",
      "type": "event"
    },
    {
      "anonymous": false,
      "inputs": [
        {
          "indexed": true,
          "name": "previousOwner",
          "type": "address"
        },
        {
          "indexed": true,
          "name": "newOwner",
          "type": "address"
        }
      ],
      "name": "OwnershipTransferred",
      "type": "event"
    },
    {
      "constant": false,
      "inputs": [
        {
          "name": "data_id",
          "type": "uint256"
        },
        {
          "name": "publicKeyX",
          "type": "bytes32"
        },
        {
          "name": "publicKeyY",
          "type": "bytes32"
        }
      ],
      "name": "requestAccessWithKey",
      "outputs": [],
      "payable": false,
      "stateMutability": "nonpayable",
      "type": "function"
    },
    {
      "constant": false,
      "inputs": [
        {
          "name": "data_id",
          "type": "uint256"
        }
      ],
      "name": "requestAccess",
      "outputs": [],
      "payable": false,
      "stateMutability": "nonpayable",
      "type": "function"
    },
    {
      "constant": false,
      "inputs": [
        {
          "name": "IPFSaddress",
          "type": "bytes32"
        }
      ],
      "name": "addContent",
      "outputs": [],
      "payable": false,
      "stateMutability": "nonpayable",
      "type": "function"
    },
    {
      "constant": false,
      "inputs": [
        {
          "name": "user",
          "type": "address"
        },
        {
          "name": "data_id",
          "type": "uint256"
        },
        {
          "name": "newContentLocation",
          "type": "bytes32"
        }
      ],
      "name": "grantAccess",
      "outputs": [],
      "payable": false,
      "stateMutability": "nonpayable",
      "type": "function"
    },
    {
      "constant": false,
      "inputs": [
        {
          "name": "user_id",
          "type": "address"
        },
        {
          "name": "data_id",
          "type": "uint256"
        }
      ],
      "name": "refuseAccess",
      "outputs": [],
      "payable": false,
      "stateMutability": "nonpayable",
      "type": "function"
    },
    {
      "constant": false,
      "inputs": [
        {
          "name": "user_id",
          "type": "address"
        },
        {
          "name": "data_id",
          "type": "uint256"
        },
        {
          "name": "newContentLocation",
          "type": "bytes32"
        }
      ],
      "name": "revokeAccess",
      "outputs": [],
      "payable": false,
      "stateMutability": "nonpayable",
      "type": "function"
    },
    {
      "constant": true,
      "inputs": [
        {
          "name": "data_id",
          "type": "uint256"
        }
      ],
      "name": "getDataLocation",
      "outputs": [
        {
          "name": "hash",
          "type": "bytes32"
        }
      ],
      "payable": false,
      "stateMutability": "view",
      "type": "function"
    },
    {
      "constant": false,
      "inputs": [
        {
          "name": "data_id",
          "type": "uint256"
        },
        {
          "name": "IPFSaddress",
          "type": "bytes32"
        }
      ],
      "name": "updateContent",
      "outputs": [],
      "payable": false,
      "stateMutability": "nonpayable",
      "type": "function"
    },
    {
      "constant": true,
      "inputs": [
        {
          "name": "data_id",
          "type": "uint256"
        }
      ],
      "name": "getUsersForDatum",
      "outputs": [
        {
          "name": "",
          "type": "address[]"
        }
      ],
      "payable": false,
      "stateMutability": "view",
      "type": "function"
    },
    {
      "constant": true,
      "inputs": [
        {
          "name": "data_id",
          "type": "uint256"
        },
        {
          "name": "user",
          "type": "address"
        }
      ],
      "name": "getUserStatusForDatum",
      "outputs": [
        {
          "name": "",
          "type": "uint256"
        }
      ],
      "payable": false,
      "stateMutability": "view",
      "type": "function"
    },
    {
      "constant": true,
      "inputs": [
        {
          "name": "user",
          "type": "address"
        }
      ],
      "name": "getPublicKey",
      "outputs": [
        {
          "name": "pubx",
          "type": "bytes32"
        },
        {
          "name": "puby",
          "type": "bytes32"
        }
      ],
      "payable": false,
      "stateMutability": "view",
      "type": "function"
    }
  ],
  "bytecode": "0x60806040526000600155336000806101000a81548173ffffffffffffffffffffffffffffffffffffffff021916908373ffffffffffffffffffffffffffffffffffffffff1602179055506000809054906101000a900473ffffffffffffffffffffffffffffffffffffffff1673ffffffffffffffffffffffffffffffffffffffff16600073ffffffffffffffffffffffffffffffffffffffff167f8be0079c531659141344cd1fd0a4f28419497f9722a3daafe3b4186f6b6457e060405160405180910390a3611922806100d46000396000f3fe608060405234801561001057600080fd5b50600436106101165760003560e01c80638da5cb5b116100a2578063b75778b111610071578063b75778b11461044b578063d332bf49146104a3578063d525c82a146104e5578063f2fde38b14610568578063fb3892d2146105ac57610116565b80638da5cb5b146103485780638f32d59b146103925780639419b513146103b4578063b59c63011461041357610116565b80636719245d116100e95780636719245d14610231578063715018a614610293578063732b47821461029d5780637fdc2cdc146102bb578063857cdbb8146102e957610116565b8063106602c21461011b5780632cfa474714610169578063329812bd146101ab57806356536ab214610203575b600080fd5b6101676004803603604081101561013157600080fd5b81019080803573ffffffffffffffffffffffffffffffffffffffff16906020019092919080359060200190929190505050610614565b005b6101a96004803603606081101561017f57600080fd5b81019080803590602001909291908035906020019092919080359060200190929190505050610740565b005b610201600480360360608110156101c157600080fd5b81019080803573ffffffffffffffffffffffffffffffffffffffff16906020019092919080359060200190929190803590602001909291905050506109d9565b005b61022f6004803603602081101561021957600080fd5b8101908080359060200190929190505050610b29565b005b61027d6004803603604081101561024757600080fd5b8101908080359060200190929190803573ffffffffffffffffffffffffffffffffffffffff169060200190929190505050610c10565b6040518082815260200191505060405180910390f35b61029b610c7b565b005b6102a5610db4565b6040518082815260200191505060405180910390f35b6102e7600480360360208110156102d157600080fd5b8101908080359060200190929190505050610dba565b005b61032b600480360360208110156102ff57600080fd5b81019080803573ffffffffffffffffffffffffffffffffffffffff169060200190929190505050611038565b604051808381526020018281526020019250505060405180910390f35b610350611144565b604051808273ffffffffffffffffffffffffffffffffffffffff1673ffffffffffffffffffffffffffffffffffffffff16815260200191505060405180910390f35b61039a61116d565b604051808215151515815260200191505060405180910390f35b6103f6600480360360208110156103ca57600080fd5b81019080803573ffffffffffffffffffffffffffffffffffffffff1690602001909291905050506111c4565b604051808381526020018281526020019250505060405180910390f35b6104496004803603604081101561042957600080fd5b8101908080359060200190929190803590602001909291905050506111e8565b005b6104a16004803603606081101561046157600080fd5b81019080803573ffffffffffffffffffffffffffffffffffffffff16906020019092919080359060200190929190803590602001909291905050506112ac565b005b6104cf600480360360208110156104b957600080fd5b81019080803590602001909291905050506113fc565b6040518082815260200191505060405180910390f35b610511600480360360208110156104fb57600080fd5b8101908080359060200190929190505050611419565b6040518080602001828103825283818151815260200191508051906020019060200280838360005b83811015610554578082015181840152602081019050610539565b505050509050019250505060405180910390f35b6105aa6004803603602081101561057e57600080fd5b81019080803573ffffffffffffffffffffffffffffffffffffffff169060200190929190505050611688565b005b6105f8600480360360408110156105c257600080fd5b8101908080359060200190929190803573ffffffffffffffffffffffffffffffffffffffff16906020019092919050505061170e565b604051808260ff1660ff16815260200191505060405180910390f35b61061c61116d565b61068e576040517f08c379a00000000000000000000000000000000000000000000000000000000081526004018080602001828103825260208152602001807f4f776e61626c653a2063616c6c6572206973206e6f7420746865206f776e657281525060200191505060405180910390fd5b60006004600083815260200190815260200160002060008473ffffffffffffffffffffffffffffffffffffffff1673ffffffffffffffffffffffffffffffffffffffff16815260200190815260200160002060006101000a81548160ff021916908360ff160217905550808273ffffffffffffffffffffffffffffffffffffffff167f3d0cad026f2ac53250b0fd7dfffb4c4f4800767994b69eb9be1987edb4f2678060405160405180910390a35050565b61074a828261173d565b6107bc576040517f08c379a00000000000000000000000000000000000000000000000000000000081526004018080602001828103825260168152602001807f7075626c6963206b65792063616e6e6f7420626520300000000000000000000081525060200191505060405180910390fd5b60016004600085815260200190815260200160002060003373ffffffffffffffffffffffffffffffffffffffff1673ffffffffffffffffffffffffffffffffffffffff16815260200190815260200160002060006101000a81548160ff021916908360ff16021790555061082e6118b0565b604051806040016040528084815260200183815250905080600560003373ffffffffffffffffffffffffffffffffffffffff1673ffffffffffffffffffffffffffffffffffffffff16815260200190815260200160002060008201518160000155602082015181600101559050506003600085815260200190815260200160002073__IterableMapping_______________________63788f0f0390913360016040518463ffffffff1660e01b8152600401808481526020018373ffffffffffffffffffffffffffffffffffffffff1673ffffffffffffffffffffffffffffffffffffffff16815260200182151515158152602001935050505060206040518083038186803b15801561094057600080fd5b505af4158015610954573d6000803e3d6000fd5b505050506040513d602081101561096a57600080fd5b810190808051906020019092919050505050833373ffffffffffffffffffffffffffffffffffffffff167f32b0e6b553b04f94f65aacc9ae0278df161d25b21a5d32be77657607e8548b938585604051808381526020018281526020019250505060405180910390a350505050565b6109e161116d565b610a53576040517f08c379a00000000000000000000000000000000000000000000000000000000081526004018080602001828103825260208152602001807f4f776e61626c653a2063616c6c6572206973206e6f7420746865206f776e657281525060200191505060405180910390fd5b60026004600084815260200190815260200160002060008573ffffffffffffffffffffffffffffffffffffffff1673ffffffffffffffffffffffffffffffffffffffff16815260200190815260200160002060006101000a81548160ff021916908360ff160217905550806002600084815260200190815260200160002081905550818373ffffffffffffffffffffffffffffffffffffffff167f54f0a7ff1c18023c962630facbcb3059a614ef3bc89d62636fadc8368b529f2c836040518082815260200191505060405180910390a3505050565b610b3161116d565b610ba3576040517f08c379a00000000000000000000000000000000000000000000000000000000081526004018080602001828103825260208152602001807f4f776e61626c653a2063616c6c6572206973206e6f7420746865206f776e657281525060200191505060405180910390fd5b60006001549050816002600083815260200190815260200160002081905550600160008154809291906001019190505550807f2b1a1ef07172cf19cbb5f71c02d0d05c3d50d790f01e035054f26c2018422856836040518082815260200191505060405180910390a25050565b60006004600084815260200190815260200160002060008373ffffffffffffffffffffffffffffffffffffffff1673ffffffffffffffffffffffffffffffffffffffff16815260200190815260200160002060009054906101000a900460ff1660ff16905092915050565b610c8361116d565b610cf5576040517f08c379a00000000000000000000000000000000000000000000000000000000081526004018080602001828103825260208152602001807f4f776e61626c653a2063616c6c6572206973206e6f7420746865206f776e657281525060200191505060405180910390fd5b600073ffffffffffffffffffffffffffffffffffffffff166000809054906101000a900473ffffffffffffffffffffffffffffffffffffffff1673ffffffffffffffffffffffffffffffffffffffff167f8be0079c531659141344cd1fd0a4f28419497f9722a3daafe3b4186f6b6457e060405160405180910390a360008060006101000a81548173ffffffffffffffffffffffffffffffffffffffff021916908373ffffffffffffffffffffffffffffffffffffffff160217905550565b60015481565b610dc26118b0565b600560003373ffffffffffffffffffffffffffffffffffffffff1673ffffffffffffffffffffffffffffffffffffffff168152602001908152602001600020604051806040016040529081600082015481526020016001820154815250509050610e348160000151826020015161173d565b610ea6576040517f08c379a000000000000000000000000000000000000000000000000000000000815260040180806020018281038252601b8152602001807f7075626c6963206b6579206e6f742070726f766964656420796574000000000081525060200191505060405180910390fd5b60016004600084815260200190815260200160002060003373ffffffffffffffffffffffffffffffffffffffff1673ffffffffffffffffffffffffffffffffffffffff16815260200190815260200160002060006101000a81548160ff021916908360ff1602179055506003600083815260200190815260200160002073__IterableMapping_______________________63788f0f0390913360016040518463ffffffff1660e01b8152600401808481526020018373ffffffffffffffffffffffffffffffffffffffff1673ffffffffffffffffffffffffffffffffffffffff16815260200182151515158152602001935050505060206040518083038186803b158015610fb457600080fd5b505af4158015610fc8573d6000803e3d6000fd5b505050506040513d6020811015610fde57600080fd5b810190808051906020019092919050505050813373ffffffffffffffffffffffffffffffffffffffff167fa5165aacfe032d6a5ec606938478273abcaa3a1f1b828bf30c97ef556db47b2260405160405180910390a35050565b60008061104361116d565b6110b5576040517f08c379a00000000000000000000000000000000000000000000000000000000081526004018080602001828103825260208152602001807f4f776e61626c653a2063616c6c6572206973206e6f7420746865206f776e657281525060200191505060405180910390fd5b600560008473ffffffffffffffffffffffffffffffffffffffff1673ffffffffffffffffffffffffffffffffffffffff16815260200190815260200160002060000154600560008573ffffffffffffffffffffffffffffffffffffffff1673ffffffffffffffffffffffffffffffffffffffff1681526020019081526020016000206001015491509150915091565b60008060009054906101000a900473ffffffffffffffffffffffffffffffffffffffff16905090565b60008060009054906101000a900473ffffffffffffffffffffffffffffffffffffffff1673ffffffffffffffffffffffffffffffffffffffff163373ffffffffffffffffffffffffffffffffffffffff1614905090565b60056020528060005260406000206000915090508060000154908060010154905082565b6111f061116d565b611262576040517f08c379a00000000000000000000000000000000000000000000000000000000081526004018080602001828103825260208152602001807f4f776e61626c653a2063616c6c6572206973206e6f7420746865206f776e657281525060200191505060405180910390fd5b80600260008481526020019081526020016000208190555080827f935f9715dd016909ca5676266bde959e3ac2a0bea6fb43abf17870d8077975f860405160405180910390a35050565b6112b461116d565b611326576040517f08c379a00000000000000000000000000000000000000000000000000000000081526004018080602001828103825260208152602001807f4f776e61626c653a2063616c6c6572206973206e6f7420746865206f776e657281525060200191505060405180910390fd5b60006004600084815260200190815260200160002060008573ffffffffffffffffffffffffffffffffffffffff1673ffffffffffffffffffffffffffffffffffffffff16815260200190815260200160002060006101000a81548160ff021916908360ff160217905550806002600084815260200190815260200160002081905550818373ffffffffffffffffffffffffffffffffffffffff167f4be698563e7cb077b8572d8a1638cc35f3f48238b327d3d5bd0e2f2c188f13bf836040518082815260200191505060405180910390a3505050565b600060026000838152602001908152602001600020549050919050565b60608060006003600085815260200190815260200160002073__IterableMapping_______________________63a21ab71690916040518263ffffffff1660e01b81526004018082815260200191505060206040518083038186803b15801561148157600080fd5b505af4158015611495573d6000803e3d6000fd5b505050506040513d60208110156114ab57600080fd5b810190808051906020019092919050505090506003600085815260200190815260200160002073__IterableMapping_______________________63c8fccc699091836040518363ffffffff1660e01b8152600401808381526020018281526020019250505060206040518083038186803b15801561152957600080fd5b505af415801561153d573d6000803e3d6000fd5b505050506040513d602081101561155357600080fd5b810190808051906020019092919050505015611680576000806003600087815260200190815260200160002073__IterableMapping_______________________6375a3e8e89091856040518363ffffffff1660e01b81526004018083815260200182815260200192505050604080518083038186803b1580156115d657600080fd5b505af41580156115ea573d6000803e3d6000fd5b505050506040513d604081101561160057600080fd5b81019080805190602001909291908051906020019092919050505091509150600115158115151415611674578184848151811061163957fe5b602002602001019073ffffffffffffffffffffffffffffffffffffffff16908173ffffffffffffffffffffffffffffffffffffffff16815250505b83945050505050611683565b50505b919050565b61169061116d565b611702576040517f08c379a00000000000000000000000000000000000000000000000000000000081526004018080602001828103825260208152602001807f4f776e61626c653a2063616c6c6572206973206e6f7420746865206f776e657281525060200191505060405180910390fd5b61170b8161176c565b50565b60046020528160005260406000206020528060005260406000206000915091509054906101000a900460ff1681565b6000806000801b905080841415806117555750808314155b15611764576001915050611766565b505b92915050565b600073ffffffffffffffffffffffffffffffffffffffff168173ffffffffffffffffffffffffffffffffffffffff1614156117f2576040517f08c379a00000000000000000000000000000000000000000000000000000000081526004018080602001828103825260268152602001806118d16026913960400191505060405180910390fd5b8073ffffffffffffffffffffffffffffffffffffffff166000809054906101000a900473ffffffffffffffffffffffffffffffffffffffff1673ffffffffffffffffffffffffffffffffffffffff167f8be0079c531659141344cd1fd0a4f28419497f9722a3daafe3b4186f6b6457e060405160405180910390a3806000806101000a81548173ffffffffffffffffffffffffffffffffffffffff021916908373ffffffffffffffffffffffffffffffffffffffff16021790555050565b60405180604001604052806000801916815260200160008019168152509056fe4f776e61626c653a206e6577206f776e657220697320746865207a65726f2061646472657373a165627a7a723058206d96e5b399cbdb9d31e15f40a2c774099bfc1f765e82ae0a7bf617c153c44ae70029",
  "source": "pragma solidity ^0.5.0;\nimport \"../node_modules/openzeppelin-solidity/contracts/ownership/ownable.sol\";\nimport \"./iterableMapping.sol\";\n\ncontract dataShare is Ownable() {\n    // using a library for an iterable mapping\n    using IterableMapping for IterableMapping.itmap;\n    // defining a struct to hold the public key\n    struct pubkey{\n        bytes32 x;\n        bytes32 y;\n    }\n\n    // each datum is identifed by data_id, addressed by IPFS hash\n    // datum metadata can be stored in IFPS (title ,description,...)\n    uint public data_index = 0;\n    mapping (uint => bytes32) data;\n\n    // Keep track of which data is shared\n    // mapping (bytes32 => bool) dataIsShared;\n\n    // Each datum is shared with a number of users, which can be iterated on\n    // This is because we want to know all users that have content\n    // the data_id is the first key\n    // then the iterable mapping goes from address to bool, to specify if a user has access to the content\n    mapping(uint => IterableMapping.itmap) users;\n\n    // access list for a given datum, by a given user (0 does not exist or was rejected, 1 was requested, 2 granted)\n    mapping (uint => mapping(address => uint8)) public access_list;\n\n    // user keys store, from where admin client will retrieve pub keys\n    mapping (address => pubkey) public user_keys;\n\n    // Events declarations\n    event LogAccessRequest(address indexed user_id, uint indexed data_id);\n    event LogAccessRequestWithPubKey(address indexed user_id, uint indexed data_id, bytes32 publicKeyX,bytes32 publicKeyY);\n    event LogAccessGranted(address indexed user, uint indexed data_id, bytes32 IPFSaddress);\n    event LogAccessRevoked(address indexed user, uint indexed data_id, bytes32 IPFSaddress);\n    event LogAccessRefused(address indexed user, uint indexed data_id);\n    event LogContentAdded(uint indexed data_id, bytes32 IPFSaddress);\n    event LogDataUpdated(uint indexed data_id, bytes32 indexed IPFSaddress);\n\n\n    // constructor() public {\n    //     // nothing to do except calling ownable constructor\n    // }\n// no longer needed as the content contains the keys now, which gives no attack surface to any one\n    // modifier dataNotExist(bytes32 IPFSaddress) {\n    //     require(dataIsShared[IPFSaddress],'Data already being shared');\n    //     _;\n    // }\n\n    function isPubKeyNotZero(bytes32 publicKeyX, bytes32 publicKeyY) internal pure returns (bool) {\n        // function checks if the public key is different from 0\n        bytes32 nopubkey = bytes32(0x0000000000000000000000000000000000000000000000000000000000000000);\n        if (publicKeyX != nopubkey || publicKeyY != nopubkey) {\n            return true;\n        }\n    }\n\n    function requestAccessWithKey(uint data_id, bytes32 publicKeyX, bytes32 publicKeyY) public {\n        // This is needed to provide the public key the first time and to notify owner\n        // store pubkey, counting on js client to provide correct key.\n        // After all, no on is harmed except user if it is wrong\n        require(isPubKeyNotZero(publicKeyX,publicKeyY), \"public key cannot be 0\");\n        access_list[data_id][msg.sender] = 1;\n        pubkey memory publicKey = pubkey(publicKeyX,publicKeyY);\n        user_keys[msg.sender] = publicKey;\n        users[data_id].insert(msg.sender,true);\n        emit LogAccessRequestWithPubKey(msg.sender, data_id, publicKeyX, publicKeyY);\n        }\n\n    function requestAccess(uint data_id) public {\n        // If the public key is already known, this is used to request access from the data owner\n        pubkey memory user_key = user_keys[msg.sender];\n        // the mapping should provide the default value if there is no entry for the msg.sender\n        require(isPubKeyNotZero(user_key.x, user_key.y), \"public key not provided yet\");\n        access_list[data_id][msg.sender] = 1;\n        users[data_id].insert(msg.sender,true);\n        emit LogAccessRequest(msg.sender, data_id);\n        }\n\n    // The owner adds content to be shared with others\n    function addContent(bytes32 IPFSaddress) public onlyOwner() {\n        uint data_id = data_index;\n        data[data_id] = IPFSaddress;\n        data_index++;\n        emit LogContentAdded(data_id, IPFSaddress);\n    }\n\n    // grant access to a particular datum, update request entry\n    // because the shared key is stored on IPFS, it will result in a new location\n    // this means the web client has already done all the computation and simply\n    // records it here to share with the users\n    function grantAccess(address user, uint data_id, bytes32 newContentLocation) public onlyOwner() {\n        access_list[data_id][user] = 2; // 2 means access granted\n        data[data_id] = newContentLocation; // because the client has added the sharedKey for user, the content is updated\n        emit LogAccessGranted(user, data_id, newContentLocation);\n    }\n\n    // the owner has decided to reject a user's request to share data\n    function refuseAccess(address user_id, uint data_id) public onlyOwner(){\n        access_list[data_id][user_id] = 0; // 0 means access not granted\n        emit LogAccessRefused(user_id, data_id);\n    }\n\n    // revoke a given user his access to a datum\n    // this is the most complex function, as every one needs a new key\n    // maybe the best way is to have the users each pay/request access again?\n    // then what they do is call the grant access again, or instead I can use broadcast encryption!\n    // This is a great idea I think - how does it work again?\n    // after thinking about it more, I think the better solution is to store the sharedKey in the IPFS document directly\n    // so this means, the only thing that changes is the access list and the IPFS address for the content\n    function revokeAccess(address user_id, uint data_id, bytes32 newContentLocation) public onlyOwner() {\n        access_list[data_id][user_id] = 0; // 0 means access not granted\n        data[data_id] = newContentLocation; // because the web client has removed the sharedKey for user, the content is updated\n        emit LogAccessRevoked(user_id, data_id, newContentLocation);\n    }\n    // function getSharedKey(address user_id, uint data_id) public view returns (bytes32 sharedKey) {\n    //     return sharedKeys[data_id][user_id];\n    // }\n    function getDataLocation(uint data_id) public view returns (bytes32 hash) {\n        return data[data_id];\n    }\n\n    // update encrypted content and/or metadata, but not the keys\n    function updateContent(uint data_id, bytes32 IPFSaddress) public onlyOwner() {\n        data[data_id] = IPFSaddress;\n        emit LogDataUpdated(data_id, IPFSaddress);\n    }\n\n    // for a given data_id, the function returns all the addresses that have access\n    function getUsersForDatum(uint data_id) public view returns ( address[] memory) {\n        address[] memory the_users;\n        for (uint i = users[data_id].iterate_start(); users[data_id].iterate_valid(i); i = users[data_id].iterate_next(i))\n        {\n            (address user, bool status) = users[data_id].iterate_get(i);\n            if (status == true) {\n               the_users[i] = user;\n            }\n        return the_users;\n        }\n    }\n    // for a given data_id and user, the function returns the access status\n    function getUserStatusForDatum(uint data_id, address user) public view returns (uint) {\n        return access_list[data_id][user];\n    }\n\n    // for a given user, return the public key\n    function getPublicKey(address user) public view onlyOwner() returns (bytes32 pubx, bytes32 puby) {\n        return(user_keys[user].x,user_keys[user].y);\n    }\n\n}\n\n\n",
  "sourcePath": "/Users/Jean-Marc/Ethereum-projects/secure-data-share/contracts/dataShare.sol",
  "compiler": {
    "name": "solc",
    "version": "0.5.8+commit.23d335f2.Emscripten.clang"
  },
  "schemaVersion": "3.0.10",
  "updatedAt": "2019-07-28T21:38:19.110Z",
  "devdoc": {
    "methods": {
      "isOwner()": {
        "details": "Returns true if the caller is the current owner."
      },
      "owner()": {
        "details": "Returns the address of the current owner."
      },
      "renounceOwnership()": {
        "details": "Leaves the contract without owner. It will not be possible to call `onlyOwner` functions anymore. Can only be called by the current owner.     * > Note: Renouncing ownership will leave the contract without an owner, thereby removing any functionality that is only available to the owner."
      },
      "transferOwnership(address)": {
        "details": "Transfers ownership of the contract to a new account (`newOwner`). Can only be called by the current owner."
      }
    }
  },
  "userdoc": {
    "methods": {}
  }
}