{
  "contractName": "dataShare",
  "abi": [
    {
      "anonymous": false,
      "inputs": [
        {
          "indexed": true,
          "internalType": "address",
          "name": "user",
          "type": "address"
        },
        {
          "indexed": true,
          "internalType": "uint256",
          "name": "data_id",
          "type": "uint256"
        },
        {
          "indexed": false,
          "internalType": "bytes32",
          "name": "IPFSaddress",
          "type": "bytes32"
        }
      ],
      "name": "LogAccessGranted",
      "type": "event"
    },
    {
      "anonymous": false,
      "inputs": [
        {
          "indexed": true,
          "internalType": "address",
          "name": "user",
          "type": "address"
        },
        {
          "indexed": true,
          "internalType": "uint256",
          "name": "data_id",
          "type": "uint256"
        }
      ],
      "name": "LogAccessRefused",
      "type": "event"
    },
    {
      "anonymous": false,
      "inputs": [
        {
          "indexed": true,
          "internalType": "address",
          "name": "user_id",
          "type": "address"
        },
        {
          "indexed": true,
          "internalType": "uint256",
          "name": "data_id",
          "type": "uint256"
        }
      ],
      "name": "LogAccessRequest",
      "type": "event"
    },
    {
      "anonymous": false,
      "inputs": [
        {
          "indexed": true,
          "internalType": "address",
          "name": "user_id",
          "type": "address"
        },
        {
          "indexed": true,
          "internalType": "uint256",
          "name": "data_id",
          "type": "uint256"
        },
        {
          "indexed": false,
          "internalType": "bytes32",
          "name": "publicKeyX",
          "type": "bytes32"
        },
        {
          "indexed": false,
          "internalType": "bytes32",
          "name": "publicKeyY",
          "type": "bytes32"
        }
      ],
      "name": "LogAccessRequestWithPubKey",
      "type": "event"
    },
    {
      "anonymous": false,
      "inputs": [
        {
          "indexed": true,
          "internalType": "address",
          "name": "user",
          "type": "address"
        },
        {
          "indexed": true,
          "internalType": "uint256",
          "name": "data_id",
          "type": "uint256"
        },
        {
          "indexed": false,
          "internalType": "bytes32",
          "name": "IPFSaddress",
          "type": "bytes32"
        }
      ],
      "name": "LogAccessRevoked",
      "type": "event"
    },
    {
      "anonymous": false,
      "inputs": [
        {
          "indexed": true,
          "internalType": "uint256",
          "name": "data_id",
          "type": "uint256"
        },
        {
          "indexed": false,
          "internalType": "bytes32",
          "name": "IPFSaddress",
          "type": "bytes32"
        }
      ],
      "name": "LogContentAdded",
      "type": "event"
    },
    {
      "anonymous": false,
      "inputs": [
        {
          "indexed": true,
          "internalType": "uint256",
          "name": "data_id",
          "type": "uint256"
        },
        {
          "indexed": true,
          "internalType": "bytes32",
          "name": "IPFSaddress",
          "type": "bytes32"
        }
      ],
      "name": "LogDataUpdated",
      "type": "event"
    },
    {
      "anonymous": false,
      "inputs": [],
      "name": "LogUsers_by_data",
      "type": "event"
    },
    {
      "anonymous": false,
      "inputs": [
        {
          "indexed": true,
          "internalType": "address",
          "name": "previousOwner",
          "type": "address"
        },
        {
          "indexed": true,
          "internalType": "address",
          "name": "newOwner",
          "type": "address"
        }
      ],
      "name": "OwnershipTransferred",
      "type": "event"
    },
    {
      "anonymous": false,
      "inputs": [
        {
          "indexed": false,
          "internalType": "address",
          "name": "account",
          "type": "address"
        }
      ],
      "name": "Paused",
      "type": "event"
    },
    {
      "anonymous": false,
      "inputs": [
        {
          "indexed": false,
          "internalType": "address",
          "name": "account",
          "type": "address"
        }
      ],
      "name": "Unpaused",
      "type": "event"
    },
    {
      "inputs": [
        {
          "internalType": "uint256",
          "name": "",
          "type": "uint256"
        },
        {
          "internalType": "address",
          "name": "",
          "type": "address"
        }
      ],
      "name": "access_list",
      "outputs": [
        {
          "internalType": "uint8",
          "name": "",
          "type": "uint8"
        }
      ],
      "stateMutability": "view",
      "type": "function",
      "constant": true
    },
    {
      "inputs": [],
      "name": "data_index",
      "outputs": [
        {
          "internalType": "uint256",
          "name": "",
          "type": "uint256"
        }
      ],
      "stateMutability": "view",
      "type": "function",
      "constant": true
    },
    {
      "inputs": [],
      "name": "owner",
      "outputs": [
        {
          "internalType": "address",
          "name": "",
          "type": "address"
        }
      ],
      "stateMutability": "view",
      "type": "function",
      "constant": true
    },
    {
      "inputs": [],
      "name": "paused",
      "outputs": [
        {
          "internalType": "bool",
          "name": "",
          "type": "bool"
        }
      ],
      "stateMutability": "view",
      "type": "function",
      "constant": true
    },
    {
      "inputs": [],
      "name": "renounceOwnership",
      "outputs": [],
      "stateMutability": "nonpayable",
      "type": "function"
    },
    {
      "inputs": [
        {
          "internalType": "address",
          "name": "newOwner",
          "type": "address"
        }
      ],
      "name": "transferOwnership",
      "outputs": [],
      "stateMutability": "nonpayable",
      "type": "function"
    },
    {
      "inputs": [
        {
          "internalType": "address",
          "name": "",
          "type": "address"
        }
      ],
      "name": "user_keys",
      "outputs": [
        {
          "internalType": "bytes32",
          "name": "x",
          "type": "bytes32"
        },
        {
          "internalType": "bytes32",
          "name": "y",
          "type": "bytes32"
        }
      ],
      "stateMutability": "view",
      "type": "function",
      "constant": true
    },
    {
      "inputs": [],
      "name": "pause",
      "outputs": [],
      "stateMutability": "nonpayable",
      "type": "function"
    },
    {
      "inputs": [],
      "name": "unpause",
      "outputs": [],
      "stateMutability": "nonpayable",
      "type": "function"
    },
    {
      "inputs": [
        {
          "internalType": "uint256",
          "name": "data_id",
          "type": "uint256"
        },
        {
          "internalType": "bytes32",
          "name": "publicKeyX",
          "type": "bytes32"
        },
        {
          "internalType": "bytes32",
          "name": "publicKeyY",
          "type": "bytes32"
        }
      ],
      "name": "requestAccessWithKey",
      "outputs": [],
      "stateMutability": "nonpayable",
      "type": "function"
    },
    {
      "inputs": [
        {
          "internalType": "uint256",
          "name": "data_id",
          "type": "uint256"
        }
      ],
      "name": "requestAccess",
      "outputs": [],
      "stateMutability": "nonpayable",
      "type": "function"
    },
    {
      "inputs": [
        {
          "internalType": "bytes32",
          "name": "IPFSaddress",
          "type": "bytes32"
        }
      ],
      "name": "addContent",
      "outputs": [],
      "stateMutability": "nonpayable",
      "type": "function"
    },
    {
      "inputs": [
        {
          "internalType": "address",
          "name": "user",
          "type": "address"
        },
        {
          "internalType": "uint256",
          "name": "data_id",
          "type": "uint256"
        },
        {
          "internalType": "bytes32",
          "name": "newContentLocation",
          "type": "bytes32"
        }
      ],
      "name": "grantAccess",
      "outputs": [],
      "stateMutability": "nonpayable",
      "type": "function"
    },
    {
      "inputs": [
        {
          "internalType": "address",
          "name": "user_id",
          "type": "address"
        },
        {
          "internalType": "uint256",
          "name": "data_id",
          "type": "uint256"
        }
      ],
      "name": "refuseAccess",
      "outputs": [],
      "stateMutability": "nonpayable",
      "type": "function"
    },
    {
      "inputs": [
        {
          "internalType": "address",
          "name": "user_id",
          "type": "address"
        },
        {
          "internalType": "uint256",
          "name": "data_id",
          "type": "uint256"
        },
        {
          "internalType": "bytes32",
          "name": "newContentLocation",
          "type": "bytes32"
        }
      ],
      "name": "revokeAccess",
      "outputs": [],
      "stateMutability": "nonpayable",
      "type": "function"
    },
    {
      "inputs": [
        {
          "internalType": "uint256",
          "name": "data_id",
          "type": "uint256"
        }
      ],
      "name": "getDataLocation",
      "outputs": [
        {
          "internalType": "bytes32",
          "name": "hash",
          "type": "bytes32"
        }
      ],
      "stateMutability": "view",
      "type": "function",
      "constant": true
    },
    {
      "inputs": [
        {
          "internalType": "uint256",
          "name": "data_id",
          "type": "uint256"
        },
        {
          "internalType": "bytes32",
          "name": "IPFSaddress",
          "type": "bytes32"
        }
      ],
      "name": "updateContent",
      "outputs": [],
      "stateMutability": "nonpayable",
      "type": "function"
    },
    {
      "inputs": [
        {
          "internalType": "uint256",
          "name": "data_id",
          "type": "uint256"
        }
      ],
      "name": "getAuthorizedUsersForDatum",
      "outputs": [
        {
          "internalType": "address[]",
          "name": "r_the_users",
          "type": "address[]"
        }
      ],
      "stateMutability": "view",
      "type": "function",
      "constant": true
    },
    {
      "inputs": [],
      "name": "getAllPendingRequests",
      "outputs": [
        {
          "internalType": "uint256[]",
          "name": "r_data_ids",
          "type": "uint256[]"
        },
        {
          "internalType": "address[]",
          "name": "r_users",
          "type": "address[]"
        }
      ],
      "stateMutability": "view",
      "type": "function",
      "constant": true
    },
    {
      "inputs": [
        {
          "internalType": "uint256",
          "name": "data_id",
          "type": "uint256"
        },
        {
          "internalType": "address",
          "name": "user",
          "type": "address"
        }
      ],
      "name": "getUserStatusForDatum",
      "outputs": [
        {
          "internalType": "uint256",
          "name": "status",
          "type": "uint256"
        }
      ],
      "stateMutability": "view",
      "type": "function",
      "constant": true
    },
    {
      "inputs": [
        {
          "internalType": "address",
          "name": "user",
          "type": "address"
        }
      ],
      "name": "getPublicKey",
      "outputs": [
        {
          "internalType": "bytes32",
          "name": "pubx",
          "type": "bytes32"
        },
        {
          "internalType": "bytes32",
          "name": "puby",
          "type": "bytes32"
        }
      ],
      "stateMutability": "view",
      "type": "function",
      "constant": true
    }
  ],
  "bytecode": "0x6080604052600060015534801561001557600080fd5b50600061002061007c565b600080546001600160a01b0319166001600160a01b0383169081178255604051929350917f8be0079c531659141344cd1fd0a4f28419497f9722a3daafe3b4186f6b6457e0908290a3506000805460ff60a01b19169055610080565b3390565b611b7b8061008f6000396000f3fe608060405234801561001057600080fd5b50600436106101775760003560e01c8063732b4782116100d85780639419b5131161008c578063d332bf4911610066578063d332bf4914610500578063f2fde38b1461051d578063fb3892d21461055057610177565b80639419b5131461046b578063b59c63011461049e578063b75778b1146104c157610177565b80638456cb59116100bd5780638456cb59146103e6578063857cdbb8146103ee5780638da5cb5b1461043a57610177565b8063732b4782146103c15780637fdc2cdc146103c957610177565b806356536ab21161012f5780636719245d116101145780636719245d146102cd5780636bd05f3514610318578063715018a6146103b957610177565b806356536ab2146102945780635c975abb146102b157610177565b80632cfa4747116101605780632cfa474714610224578063329812bd1461024d5780633f4ba83a1461028c57610177565b8063106602c21461017c57806311dc9f1f146101b7575b600080fd5b6101b56004803603604081101561019257600080fd5b5073ffffffffffffffffffffffffffffffffffffffff813516906020013561059f565b005b6101d4600480360360208110156101cd57600080fd5b5035610681565b60408051602080825283518183015283519192839290830191858101910280838360005b838110156102105781810151838201526020016101f8565b505050509050019250505060405180910390f35b6101b56004803603606081101561023a57600080fd5b5080359060208101359060400135610846565b6101b56004803603606081101561026357600080fd5b5073ffffffffffffffffffffffffffffffffffffffff81351690602081013590604001356109b4565b6101b5610b6f565b6101b5600480360360208110156102aa57600080fd5b5035610b79565b6102b9610c63565b604080519115158252519081900360200190f35b610306600480360360408110156102e357600080fd5b508035906020013573ffffffffffffffffffffffffffffffffffffffff16610c84565b60408051918252519081900360200190f35b610320610cbe565b604051808060200180602001838103835285818151815260200191508051906020019060200280838360005b8381101561036457818101518382015260200161034c565b50505050905001838103825284818151815260200191508051906020019060200280838360005b838110156103a357818101518382015260200161038b565b5050505090500194505050505060405180910390f35b6101b5610efc565b610306610ffc565b6101b5600480360360208110156103df57600080fd5b5035611002565b6101b561115d565b6104216004803603602081101561040457600080fd5b503573ffffffffffffffffffffffffffffffffffffffff16611165565b6040805192835260208301919091528051918290030190f35b610442611195565b6040805173ffffffffffffffffffffffffffffffffffffffff9092168252519081900360200190f35b6104216004803603602081101561048157600080fd5b503573ffffffffffffffffffffffffffffffffffffffff166111b1565b6101b5600480360360408110156104b457600080fd5b50803590602001356111ca565b6101b5600480360360608110156104d757600080fd5b5073ffffffffffffffffffffffffffffffffffffffff813516906020810135906040013561129a565b6103066004803603602081101561051657600080fd5b5035611399565b6101b56004803603602081101561053357600080fd5b503573ffffffffffffffffffffffffffffffffffffffff166113ab565b6105896004803603604081101561056657600080fd5b508035906020013573ffffffffffffffffffffffffffffffffffffffff16611535565b6040805160ff9092168252519081900360200190f35b6105a7611555565b60005473ffffffffffffffffffffffffffffffffffffffff90811691161461063057604080517f08c379a000000000000000000000000000000000000000000000000000000000815260206004820181905260248201527f4f776e61626c653a2063616c6c6572206973206e6f7420746865206f776e6572604482015290519081900360640190fd5b61063a8183611559565b604051819073ffffffffffffffffffffffffffffffffffffffff8416907f3d0cad026f2ac53250b0fd7dfffb4c4f4800767994b69eb9be1987edb4f2678090600090a35050565b606060008061068f846115c8565b60008581526004602052604090205490915060608267ffffffffffffffff811180156106ba57600080fd5b506040519080825280602002602001820160405280156106e4578160200160208202803683370190505b50905060005b8281101561083c576000878152600360209081526040808320600490925282208054849391908490811061071a57fe5b600091825260208083209091015473ffffffffffffffffffffffffffffffffffffffff16835282019290925260400190205414156108345760008781526005602090815260408083206004909252822080549192918490811061077957fe5b60009182526020808320919091015473ffffffffffffffffffffffffffffffffffffffff16835282019290925260400190205460ff16600214156108345760008781526004602052604090208054829081106107d157fe5b9060005260206000200160009054906101000a900473ffffffffffffffffffffffffffffffffffffffff1682868151811061080857fe5b73ffffffffffffffffffffffffffffffffffffffff909216602092830291909101909101526001909401935b6001016106ea565b5095945050505050565b60015483106108b657604080517f08c379a000000000000000000000000000000000000000000000000000000000815260206004820152601360248201527f6461746120646f6573206e6f7420657869737400000000000000000000000000604482015290519081900360640190fd5b6108c08282611697565b61092b57604080517f08c379a000000000000000000000000000000000000000000000000000000000815260206004820152601660248201527f7075626c6963206b65792063616e6e6f74206265203000000000000000000000604482015290519081900360640190fd5b610933611b08565b5060408051808201825283815260208082018481523360008181526006909352939091208251815590516001909101559061096f9085906116be565b60408051848152602081018490528151869233927f32b0e6b553b04f94f65aacc9ae0278df161d25b21a5d32be77657607e8548b93929081900390910190a350505050565b6109bc611555565b60005473ffffffffffffffffffffffffffffffffffffffff908116911614610a4557604080517f08c379a000000000000000000000000000000000000000000000000000000000815260206004820181905260248201527f4f776e61626c653a2063616c6c6572206973206e6f7420746865206f776e6572604482015290519081900360640190fd5b60005474010000000000000000000000000000000000000000900460ff1615610acf57604080517f08c379a000000000000000000000000000000000000000000000000000000000815260206004820152601060248201527f5061757361626c653a2070617573656400000000000000000000000000000000604482015290519081900360640190fd5b600082815260056020908152604080832073ffffffffffffffffffffffffffffffffffffffff871680855290835281842080547fffffffffffffffffffffffffffffffffffffffffffffffffffffffffffffff00166002908117909155868552835292819020849055805184815290518593927f54f0a7ff1c18023c962630facbcb3059a614ef3bc89d62636fadc8368b529f2c928290030190a3505050565b610b77611807565b565b610b81611555565b60005473ffffffffffffffffffffffffffffffffffffffff908116911614610c0a57604080517f08c379a000000000000000000000000000000000000000000000000000000000815260206004820181905260248201527f4f776e61626c653a2063616c6c6572206973206e6f7420746865206f776e6572604482015290519081900360640190fd5b600180546000818152600260209081526040918290208590558354840190935580518481529051919283927f2b1a1ef07172cf19cbb5f71c02d0d05c3d50d790f01e035054f26c20184228569281900390910190a25050565b60005474010000000000000000000000000000000000000000900460ff1690565b600082815260056020908152604080832073ffffffffffffffffffffffffffffffffffffffff8516845290915290205460ff165b92915050565b606080600080610ccc61190b565b905060608167ffffffffffffffff81118015610ce757600080fd5b50604051908082528060200260200182016040528015610d11578160200160208202803683370190505b50905060608267ffffffffffffffff81118015610d2d57600080fd5b50604051908082528060200260200182016040528015610d57578160200160208202803683370190505b50905060005b600154811015610ef057600081815260046020526040812054905b81811015610ee65760008381526003602090815260408083206004909252822080548493919084908110610da857fe5b600091825260208083209091015473ffffffffffffffffffffffffffffffffffffffff1683528201929092526040019020541415610ede57600083815260056020908152604080832060049092528220805491929184908110610e0757fe5b600091825260208083209091015473ffffffffffffffffffffffffffffffffffffffff16835282019290925260400190205460ff1660011415610ede5782858881518110610e5157fe5b602002602001018181525050600460008481526020019081526020016000208181548110610e7b57fe5b9060005260206000200160009054906101000a900473ffffffffffffffffffffffffffffffffffffffff16848881518110610eb257fe5b73ffffffffffffffffffffffffffffffffffffffff909216602092830291909101909101526001909601955b600101610d78565b5050600101610d5d565b50909450925050509091565b610f04611555565b60005473ffffffffffffffffffffffffffffffffffffffff908116911614610f8d57604080517f08c379a000000000000000000000000000000000000000000000000000000000815260206004820181905260248201527f4f776e61626c653a2063616c6c6572206973206e6f7420746865206f776e6572604482015290519081900360640190fd5b6000805460405173ffffffffffffffffffffffffffffffffffffffff909116907f8be0079c531659141344cd1fd0a4f28419497f9722a3daafe3b4186f6b6457e0908390a3600080547fffffffffffffffffffffffff0000000000000000000000000000000000000000169055565b60015481565b61100a611b08565b5033600090815260066020908152604091829020825180840190935280548352600190810154918301919091525482106110a557604080517f08c379a000000000000000000000000000000000000000000000000000000000815260206004820152601360248201527f6461746120646f6573206e6f7420657869737400000000000000000000000000604482015290519081900360640190fd5b6110b781600001518260200151611697565b61112257604080517f08c379a000000000000000000000000000000000000000000000000000000000815260206004820152601b60248201527f7075626c6963206b6579206e6f742070726f7669646564207965740000000000604482015290519081900360640190fd5b61112c82336116be565b604051829033907fa5165aacfe032d6a5ec606938478273abcaa3a1f1b828bf30c97ef556db47b2290600090a35050565b610b77611a16565b73ffffffffffffffffffffffffffffffffffffffff16600090815260066020526040902080546001909101549091565b60005473ffffffffffffffffffffffffffffffffffffffff1690565b6006602052600090815260409020805460019091015482565b6111d2611555565b60005473ffffffffffffffffffffffffffffffffffffffff90811691161461125b57604080517f08c379a000000000000000000000000000000000000000000000000000000000815260206004820181905260248201527f4f776e61626c653a2063616c6c6572206973206e6f7420746865206f776e6572604482015290519081900360640190fd5b60008281526002602052604080822083905551829184917f935f9715dd016909ca5676266bde959e3ac2a0bea6fb43abf17870d8077975f89190a35050565b6112a2611555565b60005473ffffffffffffffffffffffffffffffffffffffff90811691161461132b57604080517f08c379a000000000000000000000000000000000000000000000000000000000815260206004820181905260248201527f4f776e61626c653a2063616c6c6572206973206e6f7420746865206f776e6572604482015290519081900360640190fd5b6113358284611559565b60008281526002602090815260409182902083905581518381529151849273ffffffffffffffffffffffffffffffffffffffff8716927f4be698563e7cb077b8572d8a1638cc35f3f48238b327d3d5bd0e2f2c188f13bf92918290030190a3505050565b60009081526002602052604090205490565b6113b3611555565b60005473ffffffffffffffffffffffffffffffffffffffff90811691161461143c57604080517f08c379a000000000000000000000000000000000000000000000000000000000815260206004820181905260248201527f4f776e61626c653a2063616c6c6572206973206e6f7420746865206f776e6572604482015290519081900360640190fd5b73ffffffffffffffffffffffffffffffffffffffff81166114a8576040517f08c379a0000000000000000000000000000000000000000000000000000000008152600401808060200182810382526026815260200180611b206026913960400191505060405180910390fd5b6000805460405173ffffffffffffffffffffffffffffffffffffffff808516939216917f8be0079c531659141344cd1fd0a4f28419497f9722a3daafe3b4186f6b6457e091a3600080547fffffffffffffffffffffffff00000000000000000000000000000000000000001673ffffffffffffffffffffffffffffffffffffffff92909216919091179055565b600560209081526000928352604080842090915290825290205460ff1681565b3390565b600082815260036020908152604080832073ffffffffffffffffffffffffffffffffffffffff90941680845293825280832083905593825260058152838220928252919091522080547fffffffffffffffffffffffffffffffffffffffffffffffffffffffffffffff00169055565b6000818152600460205260408120548190815b8181101561168e5760008581526004602052604081208054839081106115fd57fe5b600091825260208083209091015488835260038252604080842073ffffffffffffffffffffffffffffffffffffffff9092168085529190925291205490915082141561168557600086815260056020908152604080832073ffffffffffffffffffffffffffffffffffffffff8516845290915290205460ff1660021415611685576001909301925b506001016115db565b50909392505050565b600080831515806116a85750808314155b156116b7576001915050610cb8565b5092915050565b600082815260036020908152604080832073ffffffffffffffffffffffffffffffffffffffff85168452909152902054611803576000828152600460205260409020548061174f5760008381526004602090815260408220805460018181018355918452919092200180547fffffffffffffffffffffffff0000000000000000000000000000000000000000169055015b600083815260036020908152604080832073ffffffffffffffffffffffffffffffffffffffff861680855290835281842094909455858352600482528083208054600181810183559185528385200180547fffffffffffffffffffffffff000000000000000000000000000000000000000016861790558684526005835281842094845293909152902080547fffffffffffffffffffffffffffffffffffffffffffffffffffffffffffffff001690911790555b5050565b60005474010000000000000000000000000000000000000000900460ff1661189057604080517f08c379a000000000000000000000000000000000000000000000000000000000815260206004820152601460248201527f5061757361626c653a206e6f7420706175736564000000000000000000000000604482015290519081900360640190fd5b600080547fffffffffffffffffffffff00ffffffffffffffffffffffffffffffffffffffff1690557f5db9ee0a495bf2e6ff9c91a7834c1ba4fdd244a5e8aa4e537bd38aeae4b073aa6118e1611555565b6040805173ffffffffffffffffffffffffffffffffffffffff9092168252519081900360200190a1565b600080805b600154811015611a1057600081815260046020526040812054905b81811015611a06576000838152600360209081526040808320600490925282208054849391908490811061195b57fe5b600091825260208083209091015473ffffffffffffffffffffffffffffffffffffffff16835282019290925260400190205414156119fe576000838152600560209081526040808320600490925282208054919291849081106119ba57fe5b600091825260208083209091015473ffffffffffffffffffffffffffffffffffffffff16835282019290925260400190205460ff16600114156119fe576001909301925b60010161192b565b5050600101611910565b50905090565b60005474010000000000000000000000000000000000000000900460ff1615611aa057604080517f08c379a000000000000000000000000000000000000000000000000000000000815260206004820152601060248201527f5061757361626c653a2070617573656400000000000000000000000000000000604482015290519081900360640190fd5b600080547fffffffffffffffffffffff00ffffffffffffffffffffffffffffffffffffffff16740100000000000000000000000000000000000000001790557f62e78cea01bee320cd4e420270b5ea74000d11b0c9f74754ebdbfc544b05a2586118e1611555565b60408051808201909152600080825260208201529056fe4f776e61626c653a206e6577206f776e657220697320746865207a65726f2061646472657373a264697066735822122086403a6fc00ef666d620196472d423fc82c44fff77c1cd4254a375951a719ed064736f6c63430007010033",
  "immutableReferences": {},
  "source": "// SPDX-License-Identifier: GPL-3.0\npragma solidity ^0.7.0;\nimport \"@openzeppelin/contracts/access/Ownable.sol\";\nimport \"@openzeppelin/contracts/utils/Pausable.sol\";\n\n/// @title A secure data sharing apparatus\n/// @author Jean-Marc Henry\n/// @notice You can use this contract for sharing data between multiple parties\n/// @dev This contract inherits from Ownable from Zeppelin\ncontract dataShare is Ownable(), Pausable() {\n    /// @dev defining a struct to hold the public key\n    struct pubkey{\n        bytes32 x;\n        bytes32 y;\n    }\n\n    /** @dev each datum is identifed by data_id, addressed by IPFS hash\n    datum metadata can be stored in IFPS (title ,description,...)\n    then data_index is used to keep track of how many data items exist\n    */\n    uint public data_index = 0;\n    mapping (uint => bytes32) data;\n\n    /** @dev for each data_id, there is an array of addresses mapping to a bool to signify if it exists\n    when a request for access is made the user is added at the end of the users_by_data array\n    but only if user_indexes_by_data for it is 0, otherwise the index stays the same\n    when a request is rejected, or access is revoked the user index gets set to zero\n    special care was taken when retrieving the users, as some may be there twice but no longer referenced\n    */\n    mapping(uint => mapping(address => uint)) user_indexes_by_data;\n    mapping(uint => address[]) users_by_data;\n\n    /** @dev access list for a given datum, by a given user\n    (0 does not exist or was rejected, 1 was requested, 2 granted)\n    */\n    mapping (uint => mapping(address => uint8)) public access_list;\n\n    /// @dev user keys store, from where admin client will retrieve pub keys\n    mapping (address => pubkey) public user_keys;\n\n    /// @notice Events declarations\n    event LogAccessRequest(address indexed user_id, uint indexed data_id);\n    event LogAccessRequestWithPubKey(address indexed user_id, uint indexed data_id, bytes32 publicKeyX,bytes32 publicKeyY);\n    event LogAccessGranted(address indexed user, uint indexed data_id, bytes32 IPFSaddress);\n    event LogAccessRevoked(address indexed user, uint indexed data_id, bytes32 IPFSaddress);\n    event LogAccessRefused(address indexed user, uint indexed data_id);\n    event LogContentAdded(uint indexed data_id, bytes32 IPFSaddress);\n    event LogDataUpdated(uint indexed data_id, bytes32 indexed IPFSaddress);\n    event LogUsers_by_data();\n\n    /// @notice External function used to Pause the contract\n    /// @dev Uses the _pause function from the Pausable.org\n    function pause() external {\n        _pause();\n    }\n\n    /// @notice External function used to Unpause the contract\n    /// @dev Uses the _unpause function from the Pausable.org\n    function unpause() external {\n        _unpause();\n    }\n\n    /// @notice Internal function used to grant a user access to a datum\n    /// @dev Keeps consistency between user_indexes_by_data, users_by_data and access_list\n    /// @param data_id The datum identifier to which the user is granted acces\n    /// @param user The user(ethereum address) granted acces to the datum\n    function addUserByData(uint data_id, address user) internal {\n        // if the user is not yet referenced in the index we can try to add it\n        if (user_indexes_by_data[data_id][user] == 0) {\n            uint nb_users = users_by_data[data_id].length;\n            // if no user has been added, we add address 0 to slot 0\n            // slot 0 is used in index mapping to designate an unreferenced user\n            if ( nb_users == 0) {\n                users_by_data[data_id].push(address(0));\n                nb_users++;\n            }\n            // update the index mapping for user to point at the right slot\n            user_indexes_by_data[data_id][user] = nb_users;\n            // actually create the user entry\n            users_by_data[data_id].push(user);\n            // update the access list, setting the request status to 'requested' (1)\n            access_list[data_id][user] = 1;\n        }\n    }\n    // Remove user - in charge of keeping all the data structures in synch\n    function removeUserByData(uint data_id, address user) internal {\n        user_indexes_by_data[data_id][user] = 0;\n        access_list[data_id][user] = 0;\n    }\n\n    function isPubKeyNotZero(bytes32 publicKeyX, bytes32 publicKeyY) internal pure returns (bool) {\n        // function checks if the public key is different from 0\n        bytes32 nopubkey = bytes32(0x0000000000000000000000000000000000000000000000000000000000000000);\n        if (publicKeyX != nopubkey || publicKeyY != nopubkey) {\n            return true;\n        }\n    }\n    /// @author Jean-Marc Henry\n    /// @notice Request access for a user to a datum, providing his/her her public key\n    /** @dev This function needs to be called only the first time a requests access.\n    Subsequently, the client dapp can call the less gas hungry requestAccess() function.\n    It stores the public key, counting on js client to provide the correct key.\n    After all, no on is harmed except user if it is wrong, therefore there is no need\n    to waste gas on verifying the key is valid. The exception is made here is to check that\n    the key is not 0, as in a mapping this is the equivalent of no entry.\n    */\n    /// @param data_id The datum identifier to which the user is granted acces\n    /// @param publicKeyX The Ethereum's public key's X coordinate\n    /// @param publicKeyY The Ethereum's public key's Y coordinate\n    function requestAccessWithKey(uint data_id, bytes32 publicKeyX, bytes32 publicKeyY) public {\n        require((data_id < data_index), \"data does not exist\");\n        require(isPubKeyNotZero(publicKeyX,publicKeyY), \"public key cannot be 0\");\n        // emit debugInt(access_list[data_id][msg.sender]);\n        pubkey memory publicKey = pubkey(publicKeyX,publicKeyY);\n        user_keys[msg.sender] = publicKey;\n        addUserByData(data_id,msg.sender);\n        emit LogAccessRequestWithPubKey(msg.sender, data_id, publicKeyX, publicKeyY);\n        }\n\n    /// @author Jean-Marc Henry\n    /// @notice Request access for a user to a datum\n    /** @dev This function should be called only once the client dapp has provided the public key\n    through the requestAccessWithKey() function.\n    */\n    /// @param data_id The datum identifier to which the user is granted acces\n    function requestAccess(uint data_id) public {\n        pubkey memory user_key = user_keys[msg.sender];\n        // the mapping should provide the default value if there is no entry for the msg.sender\n        require((data_id < data_index), \"data does not exist\");\n        require(isPubKeyNotZero(user_key.x, user_key.y), \"public key not provided yet\");\n        addUserByData(data_id,msg.sender);\n        // emit debugInt(access_list[data_id][msg.sender]);\n        emit LogAccessRequest(msg.sender, data_id);\n        }\n    /// @author Jean-Marc Henry\n    /// @notice The owner of the contract can add some new content to share\n    /**  @dev The owner creates content to share, stores it on IPFS. The IPFS hash is stored\n    in the contract. In fact it is only the digest of the multihash that is stored.\n    This has the advantage of saving quite a bit of gas, as only a single block is used\n    to store the digest. On the client side, the multihash needs to be reconstructed.\n    To be noted, that this is NOT forward compatible. If IPFS were to start using a different hash function,\n    it would break the functionality. So far, nothing has changed sinced the project started however.\n    */\n    /// @param IPFSaddress The IPFS digest, allowing to retrieve the encrypted data\n    function addContent(bytes32 IPFSaddress) public onlyOwner() {\n        uint data_id = data_index;\n        data[data_id] = IPFSaddress;\n        data_index++;\n        emit LogContentAdded(data_id, IPFSaddress);\n    }\n\n    /// @author Jean-Marc Henry\n    /// @notice The data owner grants a user access to a particular datum, if the contract is paused this critical function is disabled\n    /**  @dev The owner grants access to request. The reason a new IPFS location is required,\n    is because the data is encrypted with a symmetric key, shared by all users.\n    However, it is encrypted uniquely with each user's public key.\n    Storing the shared key encrypted for each user would be prohibitive on the blockchain.\n    The solution then is to store them on IPFS, thus every time a user is added or removed,\n    the IPFS address will be updated (i.e. because it is the hash of the data it contains).\n    */\n    /// @param user The user(ethereum address) granted acces to the datum\n    /// @param data_id The datum identifier to which the user is granted acces\n    /// @param newContentLocation The IPFS digest, allowing to retrieve the encrypted data\n    function grantAccess(address user, uint data_id, bytes32 newContentLocation) public onlyOwner() whenNotPaused() {\n        access_list[data_id][user] = 2; // 2 means access granted\n        data[data_id] = newContentLocation; // because the client has added the sharedKey for user, the content is updated\n        emit LogAccessGranted(user, data_id, newContentLocation);\n    }\n    /// @author Jean-Marc Henry\n    /// @notice The owner has decided to reject a user's request to share data\n    /**  @dev The owner refuses to grand access to the request. No need to update\n    the IPFS address as no new key added or content modified. Note the use of\n    the internal removeUserByData() function to keep everything in synch.\n    */\n    /// @param user_id The user(ethereum address) being refused acces to the datum\n    /// @param data_id The datum identifier to which the user is refused acces\n    function refuseAccess(address user_id, uint data_id) public onlyOwner(){\n        removeUserByData(data_id,user_id);\n        emit LogAccessRefused(user_id, data_id);\n    }\n\n    /// @author Jean-Marc Henry\n    /// @notice The owner has decided to revoke a user's access to data\n    /**  @dev The owner revokes the access of user to some data. This, of course does not mean the user no longer\n    has access to the data, as it is on IPFS, rather it means that any new content added to that shared data will not be accessible.\n    The way it is done is by having the Dapp client generate a new shared key and encrypt it for the remaining users.\n    Since, we do not store the encrypted shared keys on the blockchain, it is not a costly operation.\n    */\n    /// @param user_id The user(ethereum address) whose access to the datum is being revoked\n    /// @param data_id The datum identifier for which the user's access is revoked\n    /// @param newContentLocation The IPFS digest, allowing to retrieve the encrypted data\n    function revokeAccess(address user_id, uint data_id, bytes32 newContentLocation) public onlyOwner() {\n        removeUserByData(data_id,user_id);\n        data[data_id] = newContentLocation; // because the web client has removed the sharedKey for user, the content is updated\n        emit LogAccessRevoked(user_id, data_id, newContentLocation);\n    }\n\n    /// @author Jean-Marc Henry\n    /// @notice Retrieve the IPFS location\n    /**  @dev As described above, this will allow retriving the IPFS hash by means of base58 encoding and\n    adding the constants describing the size and hash function used.\n    */\n    /// @param data_id The datum identifier for which we are retrieving the IPFS location\n    /// @return hash the bytes32 value of the digest of the ipfs hash\n    function getDataLocation(uint data_id) public view returns (bytes32 hash) {\n        return data[data_id];\n    }\n\n    /// @author Jean-Marc Henry\n    /// @notice update encrypted content and/or metadata, but not the keys\n    /**  @dev To be used when the owner changes something in the data, which will change the ipfs location\n    */\n    /// @param data_id The datum identifier for which we are changing the IPFS location\n    /// @param IPFSaddress The new IPFS digest, allowing to retrieve the encrypted data\n    function updateContent(uint data_id, bytes32 IPFSaddress) public onlyOwner() {\n        data[data_id] = IPFSaddress;\n        emit LogDataUpdated(data_id, IPFSaddress);\n    }\n    /// @dev for a given data_id count the number of granted requests\n    function countAuthorizedUsers(uint data_id) internal view returns (uint requestCount) {\n        uint authorizedCount = 0;\n        uint nb_users = users_by_data[data_id].length;\n        for (uint i = 0; i < nb_users ; i++)\n        {\n            address current_user = users_by_data[data_id][i];\n            // tricky next line - since the user is not removed from the array\n            // you need to verify that the index matches that of user_indexes_by_data[data_id][current_user\n            if (user_indexes_by_data[data_id][current_user] == i) {\n                if (access_list[data_id][current_user] == 2) {\n                    authorizedCount++;\n                }\n            }\n        }\n        return authorizedCount;\n    }\n\n    // for a given data_id, the function returns all the addresses that have access\n    /// @author Jean-Marc Henry\n    /// @notice For a given datum, retrive all authorized users\n    /**  @dev Useful to show who has access to what in the UI.\n    */\n    /// @param data_id The datum identifier for which we are retrieving the authorized users\n    /// @return r_the_users an array of addresses, representing the users having access the content\n    function getAuthorizedUsersForDatum(uint data_id) public view returns ( address[] memory r_the_users) {\n        uint array_index = 0;\n        uint array_size = countAuthorizedUsers(data_id);\n        uint nb_users = users_by_data[data_id].length;\n        address[] memory the_users = new address[](array_size);\n        for (uint i = 0; i < nb_users ; i++)\n        {\n            if (user_indexes_by_data[data_id][users_by_data[data_id][i]] == i) {\n                if (access_list[data_id][users_by_data[data_id][i]] == 2) {\n                    the_users[array_index] = (users_by_data[data_id][i]);\n                    array_index++;\n                }\n            }\n        }\n        return the_users;\n    }\n    function countPendingRequests() internal view returns (uint) {\n        uint count_requested = 0;\n        for (uint datum = 0; datum < data_index; datum++)\n        {\n\n            uint nb_users = users_by_data[datum].length;\n            for (uint i = 0; i < nb_users; i++)\n            {\n                if (user_indexes_by_data[datum][users_by_data[datum][i]] == i) {\n                    if (access_list[datum][users_by_data[datum][i]] == 1) {\n                        count_requested++;\n                    }\n                }\n            }\n        }\n        return count_requested;\n    }\n\n    /// @author Jean-Marc Henry\n    /// @notice returns all the pending requests\n    /**  @dev To be used to tell the owner who requested access to what. To be noted, that the data is only\n    meaningful if interpreted as an array of tuples. The (data_id,user) tuple tells you that the user has\n    requested access to the data_id.\n    */\n    /// @return r_data_ids in conjunction with r_users returns an array of tuples (data_id, user)\n    /// @return r_users in conjunction with r_data_ids returns an array of tuples (data_id, user)\n    function getAllPendingRequests() external view returns ( uint[] memory r_data_ids, address[] memory r_users) {\n        uint array_index = 0;\n        uint array_size = countPendingRequests();\n        uint[] memory data_ids = new uint[](array_size);\n        address[] memory users = new address[](array_size);\n\n        for (uint datum = 0; datum < data_index; datum++)\n        {\n            uint nb_users = users_by_data[datum].length;\n            for (uint i = 0; i < nb_users; i++)\n            {\n                if (user_indexes_by_data[datum][users_by_data[datum][i]] == i) {\n                    if (access_list[datum][users_by_data[datum][i]] == 1) {\n                        data_ids[array_index] = (datum);\n                        users[array_index] = (users_by_data[datum][i]);\n                        array_index++;\n                    }\n                }\n            }\n        }\n        return (data_ids,users);\n\n    }\n\n\n    /// @author Jean-Marc Henry\n    /// @notice for a given data_id and user, the function returns the access status\n    /**  @dev Returns the access status, which can be used to display appropriate info in the UI.\n    The app may want to listen to events, to capture the rejection, approval of access and thus update the UI in\n    a timely manner.\n    */\n    /**  @return status can be requested (1), or granted(2). The value 0 means no access, but it will not be returned as\n    it is the equivalent of no value in a mapping, which is what the data structure uses*/\n    function getUserStatusForDatum(uint data_id, address user) public view returns (uint status) {\n        status = access_list[data_id][user];\n        return status;\n    }\n\n    /// @author Jean-Marc Henry\n    /// @notice For a given user, returns the public key\n    /**  @dev The public key can then be used to encrypt the shared symmetric key.\n    */\n    ///  @return pubx returns the X coordinate of the public key\n    ///  @return puby returns the Y coordinate of the public key\n    function getPublicKey(address user) public view returns (bytes32 pubx, bytes32 puby) {\n        return(user_keys[user].x,user_keys[user].y);\n    }\n\n}\n\n\n",
  "sourcePath": "/Users/Jean-Marc/Ethereum-projects/secure-data-share/contracts/dataShare.sol",
  "compiler": {
    "name": "solc",
    "version": "0.7.1+commit.f4a555be.Emscripten.clang"
  },
  "schemaVersion": "3.2.3",
  "updatedAt": "2020-10-01T02:21:38.173Z",
  "networkType": "ethereum",
  "devdoc": {
    "author": "Jean-Marc Henry",
    "details": "This contract inherits from Ownable from Zeppelin",
    "kind": "dev",
    "methods": {
      "addContent(bytes32)": {
        "params": {
          "IPFSaddress": "The IPFS digest, allowing to retrieve the encrypted data"
        }
      },
      "getAllPendingRequests()": {
        "returns": {
          "r_data_ids": "in conjunction with r_users returns an array of tuples (data_id, user)",
          "r_users": "in conjunction with r_data_ids returns an array of tuples (data_id, user)"
        }
      },
      "getAuthorizedUsersForDatum(uint256)": {
        "params": {
          "data_id": "The datum identifier for which we are retrieving the authorized users"
        },
        "returns": {
          "r_the_users": "an array of addresses, representing the users having access the content"
        }
      },
      "getDataLocation(uint256)": {
        "params": {
          "data_id": "The datum identifier for which we are retrieving the IPFS location"
        },
        "returns": {
          "hash": "the bytes32 value of the digest of the ipfs hash"
        }
      },
      "getPublicKey(address)": {
        "returns": {
          "pubx": "returns the X coordinate of the public key",
          "puby": "returns the Y coordinate of the public key"
        }
      },
      "getUserStatusForDatum(uint256,address)": {
        "returns": {
          "status": "can be requested (1), or granted(2). The value 0 means no access, but it will not be returned as it is the equivalent of no value in a mapping, which is what the data structure uses"
        }
      },
      "grantAccess(address,uint256,bytes32)": {
        "params": {
          "data_id": "The datum identifier to which the user is granted acces",
          "newContentLocation": "The IPFS digest, allowing to retrieve the encrypted data",
          "user": "The user(ethereum address) granted acces to the datum"
        }
      },
      "owner()": {
        "details": "Returns the address of the current owner."
      },
      "pause()": {
        "details": "Uses the _pause function from the Pausable.org"
      },
      "paused()": {
        "details": "Returns true if the contract is paused, and false otherwise."
      },
      "refuseAccess(address,uint256)": {
        "params": {
          "data_id": "The datum identifier to which the user is refused acces",
          "user_id": "The user(ethereum address) being refused acces to the datum"
        }
      },
      "renounceOwnership()": {
        "details": "Leaves the contract without owner. It will not be possible to call `onlyOwner` functions anymore. Can only be called by the current owner. NOTE: Renouncing ownership will leave the contract without an owner, thereby removing any functionality that is only available to the owner."
      },
      "requestAccess(uint256)": {
        "params": {
          "data_id": "The datum identifier to which the user is granted acces"
        }
      },
      "requestAccessWithKey(uint256,bytes32,bytes32)": {
        "params": {
          "data_id": "The datum identifier to which the user is granted acces",
          "publicKeyX": "The Ethereum's public key's X coordinate",
          "publicKeyY": "The Ethereum's public key's Y coordinate"
        }
      },
      "revokeAccess(address,uint256,bytes32)": {
        "params": {
          "data_id": "The datum identifier for which the user's access is revoked",
          "newContentLocation": "The IPFS digest, allowing to retrieve the encrypted data",
          "user_id": "The user(ethereum address) whose access to the datum is being revoked"
        }
      },
      "transferOwnership(address)": {
        "details": "Transfers ownership of the contract to a new account (`newOwner`). Can only be called by the current owner."
      },
      "unpause()": {
        "details": "Uses the _unpause function from the Pausable.org"
      },
      "updateContent(uint256,bytes32)": {
        "params": {
          "IPFSaddress": "The new IPFS digest, allowing to retrieve the encrypted data",
          "data_id": "The datum identifier for which we are changing the IPFS location"
        }
      }
    },
    "stateVariables": {
      "access_list": {
        "details": "access list for a given datum, by a given user (0 does not exist or was rejected, 1 was requested, 2 granted)"
      },
      "data_index": {
        "details": "each datum is identifed by data_id, addressed by IPFS hash datum metadata can be stored in IFPS (title ,description,...) then data_index is used to keep track of how many data items exist"
      },
      "user_indexes_by_data": {
        "details": "for each data_id, there is an array of addresses mapping to a bool to signify if it exists when a request for access is made the user is added at the end of the users_by_data array but only if user_indexes_by_data for it is 0, otherwise the index stays the same when a request is rejected, or access is revoked the user index gets set to zero special care was taken when retrieving the users, as some may be there twice but no longer referenced"
      },
      "user_keys": {
        "details": "user keys store, from where admin client will retrieve pub keys"
      }
    },
    "title": "A secure data sharing apparatus",
    "version": 1
  },
  "userdoc": {
    "events": {
      "LogAccessRequest(address,uint256)": {
        "notice": "Events declarations"
      }
    },
    "kind": "user",
    "methods": {
      "pause()": {
        "notice": "External function used to Pause the contract"
      },
      "unpause()": {
        "notice": "External function used to Unpause the contract"
      }
    },
    "notice": "You can use this contract for sharing data between multiple parties",
    "version": 1
  }
}